:1000000000000220990100006D61000031610000D4
:100010003161000031610000316100003161000098
:100020003161000031610000316100006D6100004C
:100030006D610000316100006D6100002161000010
:100040006D6100006D6100006D6100006D61000078
:100050006D6100006D6100006D6100006D61000068
:100060006D6100006D6100006D6100006D61000058
:100070006D6100006D6100006D6100006D61000048
:100080006D6100006D6100006D6100006D61000038
:100090006D6100006D6100006D6100006D61000028
:1000A0006D6100006D6100006D6100006D61000018
:1000B0006D6100006D6100006D610000E589000068
:1000C0006D610000699100006D610000F196000013
:1000D0006D610000C16D00006D6100006D61000088
:1000E0006D6100006D6100006D6100006D610000D8
:1000F0006D6100006D6100006D6100006D610000C8
:100100006D6100006D6100006D6100006D610000B7
:100110006D610000717000006D6100006D61000094
:100120006D6100006D6100006D6100006D61000097
:100130006D6100006D6100006D6100006D61000087
:100140006D6100006D610000419C00006D61000068
:1001500091A100006D6100006D6100006D61000003
:100160006D6100006D6100006D6100006D61000057
:100170006D6100006D6100006D6100006D61000047
:100180006D6100006D6100006D6100006D61000037
:100190006D6100006D610000584B4CF2205210B5AB
:1001A0001A804DF628121A8000BF00BF05F0E2FF4A
:1001B000534B4FF030621A60524A9A60524ADA60EA
:1001C000524B4FF470021A60514B1A6812F480724D
:1001D00004D150490A604FF4A8521A604E4B1A7865
:1001E000110703D51A7842F008021A704B4B4C4C99
:1001F0004C482A221A704C4A00239918A14203D273
:10020000195899500433F8E7484B494900228B426A
:1002100002D243F8042BFAE74648474900235A58CC
:100220001A500433B3F5CC7FF9D1444B444A8021B2
:1002300003F8011B9342FBD1424B3E4A1A60424BEA
:100240008A221A70A3F5805324225A70A0221A70B1
:100250009A799207FCD59A79D406FCD43B4A9379D3
:1002600003F00C03082B394BF9D103221A714622F3
:100270005A719A799006FCD5344A9179334B4906E4
:10028000FBD5334A4FF08271116009215160202261
:100290001A709A7902F00C020C2AFAD12D4B2E4AD0
:1002A0001A602E4B2E4A1A6000225A60072243F829
:1002B000042C2C4AC3F80C2D62B606F065FA154BD7
:1002C0001B68DA0705D5284806F024F9274B284A89
:1002D0001A60284B1B785B0609D5244C244A2368F6
:1002E000934204D1204806F015F9002323600AF058
:1002F000EBFE05F045FF07F0D5FFFEE70E200540B9
:1003000030800440823F04000100002B88ED00E0B3
:1003100010D0034014D0034002D0074000E0074053
:100320007813FF1F0C3C01006007FF1F7813FF1FAD
:10033000202AFF1F0002FF1F0000000000E400E071
:1003400056E400E008ED00E00050064000400640A2
:100350004480044004800440C010050014E000E024
:10036000BFD40100000020207A41B55A1CE00340B0
:10037000A5C3945A00F00740FFFFFFFFFFFFFFFFF8
:10038000FFFFFFFFFFFFFFFFFFFFFFFFFFFFFFFF7D
:10039000FFFFFFFFFFFFFFFFFFFFFFFFFFFFFFFF6D
:1003A000FFFFFFFFFFFFFFFFFFFFFFFFFFFFFFFF5D
:1003B000FFFFFFFFFFFFFFFFFFFFFFFFFFFFFFFF4D
:1003C000FFFFFFFFFFFFFFFFFFFFFFFFFFFFFFFF3D
:1003D000FFFFFFFFFFFFFFFFFFFFFFFFFFFFFFFF2D
:1003E000FFFFFFFFFFFFFFFFFFFFFFFFFFFFFFFF1D
:1003F000FFFFFFFFFFFFFFFFFFFFFFFFFFFFFFFF0D
:10040000FFFFFFFFFFFFFFFFFFFFFFFFDEF9FFFF23
:1004100010B5054C237833B9044B13B10448AFF33E
:1004200000800123237010BD7813FF1F000000001F
:10043000043C010008B5064B1BB106480649AFF362
:1004400000800648036813B1054B03B1984708BD07
:1004500000000000043C01007C13FF1F7813FF1F05
:100460000000000008B506F04FF808BD10B50446BE
:10047000343007F0A5FE204610BD00BF38B5044655
:1004800000F134052846002107F0E6FE284607491A
:1004900007F0F6FE00236364A364E364002384F89A
:1004A0005030636584F85830204638BD5C1F010029
:1004B0002DE9F04184B005464E4C23685B68204628
:1004C0004D490F2298472046294607F073FD2046E4
:1004D00007F024FDEFB249483946494AFA2302F0B1
:1004E00023FD50B923685B68204646490722984798
:1004F000204607F013FD002079E03E4C23685B683E
:1005000020464149062298473D4E30460BF09EFD5D
:10051000024623685B68204631469847204607F02C
:10052000FDFCDFF80081404631460BF031FD2368C9
:100530005B68204635490A22984740460BF086FD05
:10054000024623685B68204641469847204607F0EC
:10055000E5FC0DF10E030093284839463246FA2394
:1005600002F0F2FB40B923685B6820462549072268
:100570009847204607F0D2FC1E4C23685B68204653
:1005800023490B2298472046294607F013FD23688C
:100590005B6820461F49022298472046BDF80E108E
:1005A00007F008FD23685B6820461B490D22984729
:1005B000204607F0B3FC124D28460BF047FD0246DB
:1005C00023685B68204629469847204607F0A6FC2A
:1005D00028460AF059FD114B186023685B682046D5
:1005E0000F4905229847204607F098FC012004B0E7
:1005F000BDE8F081F826FF1F3C1901001C19FF1F00
:10060000AC17FF1F4C190100541901005C190100BF
:100610006819010074190100781901004C08FF1FC6
:10062000801901008017FF1F38B50546144C236858
:100630005B6820461349102298472046294607F058
:10064000B9FC204607F06AFC0F48E9B202F012FB41
:1006500050B123685B6820460C4903229847204626
:1006600007F05CFC012038BD054C23685B68204620
:1006700007490F229847204607F050FC002038BD5C
:10068000F826FF1F881901001C19FF1F9C19010083
:10069000A019010070B506460D46214C23685B6821
:1006A000204620490922984730460BF0CFFC0246ED
:1006B00023685B68204631469847204607F02EFCA9
:1006C00023685B68204618491422984728460BF097
:1006D000BDFC024623685B682046294698472046B1
:1006E00007F01CFC114831462A4602F00FFA054675
:1006F00048B923685B6820460D4906229847204682
:1007000007F00CFC09E0064C23685B6820460949A9
:1007100005229847204607F001FC284670BD00BF1F
:10072000F826FF1FB0190100BC1901001C19FF1F9A
:10073000D4190100DC19010010B5064C03E0206853
:100740000368DB689847206803689B68984700281F
:10075000F5D110BD6408FF1F70B58EB0FFF7ECFF38
:10076000324C206803685B6831490822984720684A
:100770000368DB6C0D219847322005F0EFFF25461A
:10078000322611E0304605F0E9FF002406E0286833
:100790000368DB68984701AB185501342868036883
:1007A0009B6898478442F2DB286803689B689847F7
:1007B0000028E7D11F4C23685B6820461E4914229D
:1007C000984701A80BF042FC024623685B6820466C
:1007D00001A99847204607F0A1FB23685B682046E3
:1007E00016490D22984723681B6820469DF814106F
:1007F0009847204607F092FB9DF81250303D236841
:100800005B6820460E49092298472046294607F092
:10081000D1FB23685B6820460A4908229847204696
:1008200007F07CFB28460EB070BD00BF6408FF1FB8
:10083000E4190100F826FF1FF0190100081A010051
:10084000181A0100241A010010B50B4C23685B68CC
:1008500020460A4916229847204607F05FFB1020E1
:10086000012105F067FE40F6B83005F077FF102053
:10087000002105F05FFE10BDF826FF1F301A0100B1
:1008800010B5402406F036FA013CFBD110BD00BF84
:10089000F0B583B00D4B1B680093009D0C4E0D4FBF
:1008A0000A4C06F017FA40B106F024FA3368B3F5A3
:1008B000FA7F38BFF8540133336023680193019BFA
:1008C0005B1BB3F57A7FECD303B0F0BD6025FF1F4F
:1008D000C018FF1F7814FF1F10B5334C23685B68E6
:1008E0002046324915229847204607F017FB304C26
:1008F00023681B6820463F21984723681B682046D1
:100900000D2198474FF4FA6005F028FF06F0E2F950
:10091000C0B923681B6820463F21984723681B689D
:1009200020460D2198474FF4FA6005F017FF1E4C42
:1009300023685B6820461F4916229847204607F027
:10094000EDFA01E0FFF7A4FF06F0C4F9C0B9184CB6
:1009500023681B6820463F21984723681B68204670
:100960000D2198470A2005F0F9FE0F4C23685B68BB
:100970002046114913229847204607F0CFFA01E09C
:10098000FFF786FF4FF4FA6005F0E8FE06F0A2F9E3
:1009900048B9054C23685B68204608491D229847E2
:1009A000204607F0BBFA10BDF826FF1F481A0100C9
:1009B000D426FF1F601A0100781A01008C1A01006A
:1009C0002DE9F04786B0002422462549635C2C2B94
:1009D00008BF01320A2A3CD104F1020904F10308DC
:1009E000271D1F4E16F8092016F80830F15D0091FA
:1009F00003A81C490BF01EF903A80AF045FB824628
:100A0000194D2B685B6828461849182298472B68AF
:100A100034441B682846617898472B681B68284631
:100A200016F8091098472B681B68284616F8081016
:100A300098472B681B682846F15D9847284607F0C1
:100A40006DFA2B685B682846094911229847504681
:100A500003E00134D22CB9D1002006B0BDE8F08704
:100A60007814FF1FAC1A0100F826FF1FB41A01000A
:100A7000D01A010010B58EB0FFF7A2FF182813D1CD
:100A8000254B1B7833B9254B18682549FFF702FE23
:100A9000214B1870234B1B7833B9234B186820491E
:100AA000FFF7F8FD1F4B1870204C23685B68204649
:100AB0001F490D229847204607F030FA1D4B1B684E
:100AC0000093009A1C4B1A6001221C4B1A70FFF70E
:100AD00077FF431C182B17DC194A12788AB1022BB6
:100AE00006D100220C490A700E490A7000E0012369
:100AF00001A81449144A0BF09DF8144801A9FFF706
:100B0000C9FDFFF7A1FE04E00D4B1B78002BEED1D1
:100B1000F7E70EB010BD00BF9C13FF1F4808FF1F72
:100B2000E41A01009417FF1F5C08FF1FF826FF1F3F
:100B30003C1B01006025FF1FD018FF1FD418FF1FAA
:100B40005C1AFF1FE01B01004C1B01008017FF1FF8
:100B500038B52DED028B0023194633481A5C2C2A38
:100B600008BF01310B2950D15A1C03F10C052F4944
:100B7000CB1A2D4C9918105D01F8010C0132AA42D4
:100B8000F8D12A4D28460BF061FA0246284C23681A
:100B90005B68204629469847204607F0BFF928465B
:100BA0000AF06EFAB0EE408AF0EE608A23685B6865
:100BB000204620490D2298472046B0EE480AF0EE24
:100BC000680A062107F000FA204607F0A7F951EC61
:100BD000180B11A3D3E9002309F0B6FD10A3D3E944
:100BE000002309F065FF0AF0FDF9054623685B68FC
:100BF000204611490A2298472046294607F0DAF98B
:100C0000204607F08BF9284603E00133D22BA5D10B
:100C10000020BDEC028B38BD0000000040F8D84039
:100C2000000000000018F5407814FF1FE818FF1FAF
:100C3000F826FF1F7C1B01008C1B0100AFF3008016
:100C40002DE9F04FABB080465C4C23685B682046D2
:100C50005B490F229847204607F060F923685B68DC
:100C60002046584912229847FFF7AAFE014620461F
:100C700007F0A0F9FFF76CFF05462368DFF86491E1
:100C80005B682046494603229847284604F0D6FE72
:100C90000146204607F08EF923684B4F5B682046DB
:100CA000394601229847284604F0C0FE01462046F6
:100CB00007F080F923685B6820463946012298478F
:100CC000284604F0C3FE0146204607F073F9236866
:100CD0005B6820463D4902229847284604F08EFE74
:100CE0000146204607F066F92368394E5B682046C6
:100CF000314601229847284604F088FE01462046E6
:100D000007F058F923685B6820463146012298476E
:100D1000284604F083FE0146204607F04BF92046A2
:100D200007F0FCF8FFF74CFE8246284604F086FEEA
:100D30008346284604F07AFE0C90284604F086FE8E
:100D40000D90284604F05AFE0E90284604F05EFEF0
:100D50000F90284604F062FECDF80090CDF804B064
:100D600002970C9B039304970D9B0593194B0693D5
:100D70000E9B079308960F9B09930A960B9011A858
:100D80001549164A53460AF055FF23685B6820460A
:100D900013490B22984740460BF058F90246236846
:100DA0005B68204641469847204607F0B7F8404622
:100DB00011A9FFF76FFC2BB0BDE8F08FF826FF1FDD
:100DC000981B0100A81B0100C01B0100C41B0100EF
:100DD0003C2E0100F81B0100C81B0100E81B0100AC
:100DE000FC1B0100BC1B010070B5A0B005460E46FF
:100DF000344C23685B68204633490A2298472046D2
:100E000007F08CF8022E19D0032E2DD0012E40D1E0
:100E10002E4B186809F0F8FDCDE900012C4B029328
:100E20002C4B03932C4B186809F0EEFDCDE904011F
:100E300007A82A492A4A0AF0FDFE2AE0294B186829
:100E400009F0E2FDCDE90001214B0293264B03930B
:100E5000264B186809F0D8FDCDE9040107A81F4901
:100E6000234A0AF0E7FE14E0224B186809F0CCFD93
:100E7000CDE90001164B02931F4B03931F4B1868DB
:100E800009F0C2FDCDE9040107A814491C4A0AF083
:100E9000D1FE0C4C23685B6820461A490B22984708
:100EA00028460BF0D3F8024623685B6820462946A3
:100EB0009847204607F032F8284607A9FFF7EAFBD3
:100EC00020B070BDF826FF1F081C0100481AFF1F44
:100ED000381C01003C1C01006C16FF1F141C010093
:100EE000281C01009413FF1F5C1C01005017FF1FFA
:100EF0004C1C01009813FF1F7C1C01005417FF1F9E
:100F00006C1C0100FC1B010070B52DED028B0F2045
:100F100005F074F807EE100AF8EEC78A9FED378ADD
:100F200068EE888A172005F069F807EE100AF8EED7
:100F3000C77A27EE888A324C23685B68204631499D
:100F40001322984718EE900A09F05EFD41EC100B51
:100F50002046022107F038F8204606F0DFFF23681C
:100F60005B68204628491422984718EE100A09F0B9
:100F70004BFD41EC100B2046022107F025F82046DE
:100F800006F0CCFF214EDFED227A68EEA78ADFED76
:100F9000217AC8EEA78AC6ED008A1F4D9FED1F7A01
:100FA00028EE078AC8EE277AC5ED007A23685B68C9
:100FB00020461B490F229847306809F025FD41EC77
:100FC000100B2046022106F0FFFF204606F0A6FF88
:100FD00023685B68204613490D229847286809F06A
:100FE00013FD41EC100B2046022106F0EDFF2046D8
:100FF00006F094FFBDEC028B70BD00BF0D68533B43
:10100000F826FF1F8C1C0100A01C01004C1AFF1FBA
:101010000080984400005C437016FF1F0000DC4312
:10102000901C0100B81C010008B5094B1B783BB1AE
:101030001B20002105F07EFA0022054B1A7008BD26
:101040000121034B19701B2005F074FA08BD00BF85
:101050005808FF1FF8B54FF47A740025262701269B
:10106000384604F0CBFFB0F5FA7FC8BF01353046F3
:1010700005F074FB013CF3D12846F8BD38B5A14812
:10108000A14901F027FA0546A04C23685B68204679
:101090009F492B2298472046294606F08BFF23685C
:1010A0005B6820469B490E229847204606F036FF93
:1010B000204606F033FF4FF4FA6005F04FFB9648E8
:1010C00004F074FD23685B68204694491722984712
:1010D0009348FE2102F0FCFC40B923685B6820467F
:1010E000904916229847204606F018FF874C23683F
:1010F0005B6820468C4914229847204606F00EFF74
:101100001B20012105F048FA2520012105F044FAB1
:101110002320012105F040FA2620002105F03CFAA9
:10112000322005F01BFB2320012105F003FA0F20DC
:10113000002105F031FA1B20012105F0FBF971486F
:1011400001F0DAF923685B68204678490A2298475B
:10115000FFF780FF0146204606F02CFFFFF77AFFDD
:10116000B0F5FA7F0DDD23685B68204670490422E4
:101170009847204606F0D2FE2320002105F0DAF938
:1011800009E0624C23685B6820466A49052298475B
:10119000204606F0C3FEFFF75DFFB0F5FA7F32DAB6
:1011A0002320012105F0C6F9584C23685B682046CE
:1011B00061490F229847204606F0B0FE2520012104
:1011C00005F0B8F94FF4FA6005F0C8FA25200021BF
:1011D00005F0B0F941F2883005F0C0FA2520012170
:1011E00005F0A8F94FF4FA6005F0B8FA23200021C1
:1011F00005F0A0F923685B6820465049042298470F
:10120000204606F08BFE3F4801F076F94C4C2068F2
:1012100003689B694FF4964198474A48216802F059
:101220006DFA48B9394C23685B682046464912225A
:101230009847204606F072FE4448454B196801F075
:10124000D3FA48B9314C23685B6820463E491222E4
:101250009847204606F062FE3C4801F0A7F93D4D54
:1012600028702A4C23685B6820463B490A2298472D
:10127000204606F053FE23685B6820463749062265
:1012800098472B78013B052B7FD8DFE803F0031943
:10129000242F730E1D4C23685B68204630490922B9
:1012A0009847204606F03AFE79E0184C23685B68C0
:1012B00020462C4909229847204606F02FFE6EE072
:1012C000124C23685B68204627490D229847204628
:1012D00006F024FE63E00D4C23685B68204623493A
:1012E0000D229847204606F019FE58E0074C236867
:1012F0005B6820461E4912229847204606F00EFEE3
:101300004DE000BF6C1AFF1FE0930400F826FF1F9A
:10131000C81C0100F41C010065040000041D01004C
:10132000A422FF1F1C1D0100341D01004C1D0100E3
:10133000581D0100601D0100681D0100781D01009D
:101340004408FF1F7C16FF1F801D01001C19FF1F92
:101350006408FF1F7C17FF1F941D0100A01D0100E2
:10136000A81D0100B41D0100C01D0100D01D010019
:10137000E01D0100124C23685B68204611491222CF
:101380009847204606F0CAFD09E00D4C23685B68CB
:1013900020460D4903229847204606F0BFFD102045
:1013A000012105F0F9F81020002105F0C3F843F2FF
:1013B000D40005F063FA054801F09EF838BD00BF7F
:1013C000F826FF1FF41D0100081E01006C1AFF1F04
:1013D00010B52320012105F0ADF81B4B1B78CBB1D4
:1013E0002520002105F0A6F841F2883005F0B6F975
:1013F0002520012105F09EF80022134B1A70134C92
:1014000023685B68204612490F229847204606F061
:1014100085FD10BD2520002105F08CF841F28830B3
:1014200005F09CF92520012105F084F80122064BE6
:101430001A70064C23685B68204606490E229847BE
:10144000204606F06BFD10BD5108FF1FF826FF1F58
:101450000C1E01001C1E010070B506F069FA002880
:1014600000F0918006F018FAC4B2532C02D1FFF7B5
:1014700001FB09E0542C02D1FFF7AAFF70BD512CEB
:1014800002D1FFF729FA70BD472C7CD1C82005F0A6
:1014900065F9FFF795FA50B93B4C23685B68204625
:1014A0003A492F229847204606F038FD70BD364C49
:1014B00023685B682046364912229847FFF780FA76
:1014C0000146204606F076FDFFF77AFA182803D188
:1014D00030483149FFF7DEF8FFF73AFB05462A4C62
:1014E00023685B6820462D4903229847284604F06C
:1014F000A5FA0146204606F05DFD2368284E5B688C
:101500002046314601229847284604F08FFA0146CA
:10151000204606F04FFD23685B68204631460122D5
:101520009847284604F092FA0146204606F042FD0C
:1015300023685B6820461B4902229847284604F02E
:101540005DFA0146204606F035FD2368164E5B68BD
:101550002046314601229847284604F057FA0146B2
:10156000204606F027FD23685B68204631460122AD
:101570009847284604F052FA0146204606F01AFD24
:10158000204606F0CBFC70BDF826FF1F2C1E010084
:10159000A81B01008017FF1F5C1E0100BC1B01007F
:1015A000C01B0100C41B01003C2E010030B583B0FC
:1015B00004F0F6FA0F4D00900F4B019328460F49A7
:1015C0000F4A104B0AF036FB0F4C23685B6820462D
:1015D0000E490D22984728460AF038FD0246236836
:1015E0005B68204629469847204606F097FC03B0E2
:1015F00030BD00BFF818FF1FB01E0100A41E01007F
:101600009817FF1F0C19FF1FF826FF1FB81E0100B7
:1016100000B58BB004F0BAFA092808DC04F0B6FA79
:1016200003463C483C4930220AF004FB06E004F043
:10163000ADFA0246374839490AF0FCFA04F09CFA40
:10164000092808DC04F098FA03463548324930226C
:101650000AF0F0FA06E004F08FFA024630482F490B
:101660000AF0E8FA04F06AFA092808DC04F066FADD
:1016700003462C48284930220AF0DCFA06E004F040
:101680005DFA0246274825490AF0D4FA04F060FAC8
:10169000092808DC04F05CFA034623481E4930227E
:1016A0000AF0C8FA06E004F053FA02461E481B4945
:1016B0000AF0C0FA04F056FA092808DC04F052FADD
:1016C00003461A48144930220AF0B4FA06E004F03E
:1016D00049FA0246154811490AF0ACFA04F060FADA
:1016E0000246134B0B49009101930D490291114998
:1016F00003910C490491104905910B4806900791FC
:101700000A4908910D480E490AF094FA0BB05DF8A9
:1017100004FB00BF9817FF1FC81E0100D01E010068
:101720000C19FF1F1419FF1FAC18FF1FB418FF1F5F
:10173000EC1E0100602E01003C2E0100A013FF1FD3
:10174000D41E010070B588B02E4B1B681BB9FFF783
:101750005FFFFFF72BFF2C4B93ED000A03200221C4
:101760002A4A04F059FD2A4B93ED000A0320022176
:10177000284A04F051FD284B93ED000A0320022172
:10178000264A04F049FD264B93ED000A032002216E
:10179000244A04F041FD24482449254B1A680AF0E4
:1017A00049FA68462349244A132302F03FFA234C9E
:1017B0009DF804302371029BA3609DF80C302373C5
:1017C00008AB53F8135D58689968C4F80D50C4F815
:1017D0001100C4F815101B7B6376079BE361684614
:1017E00002F038F9204602F069F968BB144C23680E
:1017F0005B682046134920229847204606F08EFB5E
:1018000003E100BFBC18FF1F481AFF1F601AFF1F2B
:101810009413FF1FE816FF1F9813FF1FA017FF1F49
:101820004C1AFF1FC418FF1F501AFF1FD01E0100C3
:101830005817FF1FA422FF1FF818FF1F5C17FF1F78
:10184000F826FF1FF01E0100714C23685B682046DC
:1018500070490B229847204606F060FB23685B68BE
:1018600020466D490B2298476C4D28460AF0EEFB46
:10187000024623685B68204629469847204606F0C2
:101880004DFB23685B68204665490B229847654DF0
:101890002046296806F08EFB204606F03FFB2B68A9
:1018A000002B3BD101222A6023685B6820465E49F9
:1018B0000E229847204606F031FB23685B4D5B689B
:1018C0002046294600229847204606F027FB584C20
:1018D00023685B68204657490D2298472046564B9F
:1018E000196806F067FB23685B68204653490422A9
:1018F0009847204606F012FB23685B68204629467D
:1019000000229847204606F009FB23685B682046C2
:101910004B4979229847204606F000FB0A2004F044
:101920001DFFFFF775FE474D28460AF08FFB024664
:101930003F4C23685B682046294698472368424D00
:101940005B682046294601229847404E30460AF0FF
:101950007DFB024623685B68204631469847236832
:101960005B682046294601229847394E30460AF0E6
:101970006DFB024623685B68204631469847236822
:101980005B682046294601229847324E30460AF0CD
:101990005DFB024623685B68204631469847236812
:1019A0005B6820462946012298472B4E30460AF0B4
:1019B0004DFB024623685B68204631469847236802
:1019C0005B682046294601229847244D28460AF0A4
:1019D0003DFB024623685B682046294698472368FA
:1019E0005B6820461E4901229847204606F096FA79
:1019F000204602F057F8064C23685B6820461949D8
:101A000005229847204606F089FA08B070BD00BF4D
:101A1000F826FF1F141F0100201F0100F818FF1FE8
:101A20002C1F0100BC18FF1F381F01005C1F0100A4
:101A30005C17FF1F481F01006008FF1F581F0100AF
:101A4000601F0100A013FF1FA82C0100601AFF1FD8
:101A5000E816FF1FA017FF1F501AFF1FC418FF1F13
:101A600000320100DC1F0100F8B5322400252E46AB
:101A70002727384604F0C2FA6428CCBF0136013566
:101A8000013CF6D106F114008542B4BF00200120CC
:101A9000F8BD00BF2DE9F04FBBB0FEF75DFE5FFA69
:101AA00080FA9A4C23685B68204699490D22984732
:101AB0004FFA8AFA2046514606F07CFA204606F094
:101AC0002DFABAF1000F40F3C68123685B68204607
:101AD000904916229847204606F020FABAF1000FE6
:101AE0003FDD00268C4F2546DFF88082DFF88092AC
:101AF00006F11E0B70B2FEF7DBFC3860741C2B681D
:101B00005B6828464146092298472846396806F00E
:101B100051FA284606F002FA3B681BB95C4501D031
:101B20002646E7E7601E40B2FEF77EFD3860D9F832
:101B300000300693069A794B1B68D21A784B9A426A
:101B40000CD9002460B2FEF76FFD01341E2CF9D1D0
:101B5000D9F800300793079A704B1A600236B245E5
:101B6000C6DC704B1B68012B24D14FF0FF326D4B4C
:101B70001A606D4B186808F047FFCDE900016B4B08
:101B800002936B4B186808F03FFFCDE9040108A8E9
:101B90006849694A0AF04EF8684808A9FEF77AFDD4
:101BA0005A4C23685B6820466549172298472046AF
:101BB00006F0B4F95B4B1B68022B10D14FF0FF32DB
:101BC000584B1A60FFF750FF28B15E4B1B7833B1BA
:101BD000FEF750FF03E059485B49FEF75BFD514BB0
:101BE0001B68032B12D1494C23685B682046574978
:101BF0001A229847204606F091F950480121FFF734
:101C0000F3F84FF0FF32474B1A602BE0042B12D150
:101C10003E4C23685B6820464C491A229847204670
:101C200006F07CF945480221FFF7DEF84FF0FF325D
:101C30003C4B1A602DE03B4B1B68052B12D1334CFB
:101C400023685B68204641491A229847204606F0DF
:101C500065F93A480321FFF7C7F84FF0FF32314BDF
:101C60001A6039E02F4B1B68062B12D1274C2368D2
:101C70005B68204635491A229847204606F04EF9FF
:101C80002E483349FEF706FD4FF0FF32254B1A6010
:101C90007CE0244B1B68072B1ED11C4C23685B681F
:101CA00020462C4917229847204606F037F92A4B40
:101CB0001B7833B1FFF7B8F920482849FEF7EAFC52
:101CC00005E0FFF7B1F91D482549FEF7E3FC4FF0A9
:101CD000FF32144B1A607EE0124B1B68082B55D163
:101CE0000A4C23685B6820461E491122984720460B
:101CF00006F014F9134B1B78002B3BD00022114B3C
:101D00001A700E481849FEF7C5FC3AE0F826FF1F86
:101D1000E41F0100F41F0100E018FF1F7416FF1FED
:101D2000E09304004C08FF1F4C1AFF1F38200100ED
:101D30007016FF1F18200100242001008017FF1FCC
:101D40004C2001005008FF1F642001008820010082
:101D5000A4200100B82001005808FF1FD020010076
:101D6000E820010000210100142101000C200100E5
:101D70006025FF1F01223E4B1A703E483E49FEF788
:101D800089FC4FF0FF323D4B1A606EE03B4B1B6805
:101D9000092B20D13A4C23685B682046394913222D
:101DA0009847204606F0BAF8374B1B783BB1002223
:101DB000354B1A702F483549FEF76CFC06E00122BE
:101DC000314B1A702B483249FEF764FC4FF0FF325A
:101DD0002A4B1A6049E0294B1B68002B45D108A803
:101DE0002C49422203F062FF08A82B4902462B4BE4
:101DF00009F020FF1E4B1B7833B108A82649024684
:101E0000274B09F017FF05E008A823490246254B98
:101E100009F010FF08A820490246234B09F00AFFE9
:101E2000194B1B7833B108A81B4902461F4B09F018
:101E300001FF05E008A8184902461D4B09F0FAFE0B
:101E400008A8154902461B4B09F0F4FE094808A9E9
:101E5000FEF720FC09E00A4C23685B68204616491F
:101E60000A229847204606F059F83BB0BDE8F08FAB
:101E70005008FF1F8017FF1F242101004C08FF1F7F
:101E8000F826FF1F342101005C1AFF1F48210100C2
:101E90006421010080210100EC310100C421010016
:101EA000D0210100D8210100E0210100F42101002E
:101EB000FC210100742101000422010038B52548ED
:101EC000254B196801F01AFC50B9244C23685B6853
:101ED0002046234912229847204606F01FF8FEE7C5
:101EE000FFF7C2FD00280CBF00253225FEF768FD74
:101EF0000246184C20461B491B4B01F09DF820461A
:101F00001A491B4B93ED000A1A4A01F0BDF820460E
:101F100019492A46194B01F08FF82046184B1968C9
:101F2000184A01F067FA204601F0E0F80B4C2368EC
:101F30005B682046144917229847204605F0EEFFBB
:101F400023685B682046114913229847204605F014
:101F5000E5FF38BD7C16FF1F4408FF1FF826FF1F52
:101F6000801D010010220100202201002422010016
:101F70004C1AFF1F342201003822010048220100C0
:101F80006008FF1F6808FF1F50220100682201003F
:101F900070B58EB0954B1B78002B43D0944C2368C2
:101FA0005B682046934924229847934B1B68019312
:101FB000019920460A22002305F0C0FF204605F0C3
:101FC000ADFF8E4C8C4E8E4D204600F095FA04F0FD
:101FD00081FE40B933680293029A2B68D31A49F6FE
:101FE0003F429342F0D9844D2B680393039A844B6C
:101FF0001A607F4C23685B682046824925229847F7
:102000002B680493049920460A22002305F096FFCA
:10201000204605F083FFFEF73BFC04F05BFE002842
:10202000F9DC03E041F2883004F098FBFFF732FD61
:10203000724800F061FAFFF70FFAFEF765FF6E4B8A
:102040001B6805930599704B1A68704B1B684EF618
:10205000602000FB03F3891A99420CD9FFF72EFF89
:10206000654B1B680693069A674B1A60FEF708FCDF
:10207000FEF762FB18E060490968079107995C4C1C
:10208000521A1344624AA2FB0301204689090A221C
:10209000002305F053FF23685B6820465D49152245
:1020A0009847204605F03AFF534B1B680893089A5F
:1020B000594B1B68D21A594B1B684EF6602101FB25
:1020C00003F39A4240D94A4C2368554E5B68204638
:1020D00031460A229847204605F020FF2368514DDB
:1020E0005B682046294606229847204605F016FFE1
:1020F00023685B68204631460A229847204605F04F
:102100000DFF23685B682046294606229847204633
:1021100005F004FF23685B68204631460A22984791
:10212000204605F0FBFE23685B6820462946062210
:102130009847204605F0F2FEFFF704FB2E4B1B6884
:102140000993099A344B1A60374B1B7853B1284CCA
:1021500023685B682046354943229847204605F0AE
:10216000DDFE09E0224C23685B68204630494322AB
:102170009847204605F0D2FEFFF776FC002800F0D5
:1021800088801B4C23685B6820462A4916229847A2
:10219000204605F0C3FE244B1B78002B40F08380C3
:1021A000154B1B680A930A9A234B1B68D21A234BC0
:1021B0001B684EF6602101FB03F39A4242D9236863
:1021C0005B6820461E490F229847204605F0A6FE70
:1021D000094B1B680B930B9A174B1A60034B1B7828
:1021E000002B60D0FEF746FC5DE000BF5008FF1FEB
:1021F000F826FF1F7C2201006025FF1F6C1AFF1FBD
:102200007816FF1FA4220100E418FF1F5408FF1FC7
:10221000D34D6210CC220100D818FF1F8008FF1F89
:10222000E4220100F02201005C1AFF1FF8220100E5
:102230003C23010080230100DC18FF1F4008FF1F22
:1022400098230100424C23685B68204641491122D3
:102250009847414B1A68414B1968414B1B680C93D6
:102260000C9BCB1A4EF6602101FB02313D4BA3FBC8
:102270000121204689090A22002305F05FFE236818
:102280005B682046384911229847204605F046FEF3
:1022900009E02F4C23685B6820463449192298478F
:1022A000204605F03BFE2A4C23685B6820463049F7
:1022B0002C2298472F4D2046296805F07BFE236885
:1022C0005B6820462C490B229847204605F026FEE5
:1022D0002A68002329498B542B6023685B682046B9
:1022E00027490F229847FEF7B5FE0146204605F024
:1022F00061FE204605F012FEFEF7ACFEB0F5FA7F57
:1023000001DAFFF765F8164B1B680D930D9A1D4B0C
:102310001B68D21A1C4B9A4214D91C4B1B785BB910
:1023200010E005F0B9FA28680368DB689847013CBB
:10233000F7D1FEF7A5FA08E01548FEF781FC002268
:10234000124B1A704024134DEBE70EB070BD00BF66
:10235000F826FF1FA82301004008FF1FDC18FF1FFD
:102360006025FF1FD34D6210BC230100D023010064
:10237000EC230100C018FF1F1C2401007814FF1F6C
:1023800028240100D018FF1FA0860100D418FF1FC9
:102390008017FF1F6408FF1FF0B587B0274804218E
:1023A00000F0DEF8264C23680593059A254B1A6049
:1023B00023680493049A244B1A6024482449254A2C
:1023C00000F022FE244F3846FEF758F8234E244DE5
:1023D000384631462A4608F04DFE224F3846FEF771
:1023E0004DF8384631462A4608F044FE1E4F38461E
:1023F000FEF744F8384631462A4608F03BFE1B4EAD
:10240000304601F019FB304619492A4608F032FEE1
:1024100023680393039A174B1A6023680293029A66
:10242000154B1A6023680193019A144B1A602368B4
:102430000093009A124B1A6007B0F0BD1C19FF1FE1
:102440006025FF1F7416FF1FE418FF1F7C16FF1F77
:10245000382401005C240100F416FF1F6D04000005
:102460003C08FF1FC013FF1F1C14FF1F5C17FF1F3A
:10247000553A0000D818FF1FD018FF1FDC18FF1FA7
:102480007816FF1F0022014B1A6070476C1AFF1F5D
:1024900072B60F4B4CF220521A804DF628121A8059
:1024A00000BF00BF40F0100292B20E3B1A800A0C2F
:1024B00004331A8089B202331980002210331A8043
:1024C00062B64FF4807300BF00BF013BFBD1704781
:1024D0000E20054038B505460C460329D8BF4FF4F9
:1024E000FA540368A34204D001202146FFF7D0FF2D
:1024F0002C60204638BD00BF72B6044B4AF202621F
:102500001A804BF280421A8062B670470C20054058
:1025100008B5D0F8280103689B68984708BD00BF3C
:1025200008B5D0F8280103681B68984708BD00BFAC
:1025300008B5D0F828010368DB68984708BD00BFDC
:1025400008B5D0F8280103681B69984708BD00BF8B
:1025500008B5D0F8280103685B69984708BD00BF3B
:1025600010B4002202714FF47A74846002730B4C31
:10257000046041730A49C0F81011C0F81421C0F872
:102580001821C0F8282180F81C21064AC0F8202113
:10259000054AC0F824215DF8044B704798240100D7
:1025A00078250100842501001C280100807B7047EC
:1025B000F8B50446012500262F4604E02368DB68B1
:1025C00020469847354623689B6820469847002850
:1025D000F4D1384604F0C2F86B1C9BB2272D01D809
:1025E0001D46F0E7F8BD00BF2DE9F04105460E4657
:1025F000884600270DE0D5F8280103689B689847B6
:1026000068B1D5F828010368DB689847EB19D873DF
:102610000137BCB2474506D0FE2FECD103E0A642FD
:1026200001D0FD2CE7D925440023EB732046BDE8FB
:10263000F08100BF2DE9F041044617464E1EB6B2A8
:1026400019B300254FF001080FE0D4F82801036802
:10265000DB689847C0B20D2807D00A2801D125B100
:10266000A7B16319D8730135ADB2D4F82801036856
:102670009B6898470028E8D146B1404604F06EF8C0
:10268000013EB6B2FD2DF0D900E000252C44002318
:10269000E373E8B2BDE8F0812DE9F04106460D464E
:1026A0009046FFF785FF1E4C23685B6820461D4956
:1026B00006229847284609F0C9FC024623685B6851
:1026C000204629469847204605F028FCD6F8287170
:1026D000284609F0BBFC02463B685B683846294641
:1026E0009847384605F01AFC304641460022FFF76D
:1026F000A1FF054623685B6820460B4906229847E0
:102700000F36304609F0A2FC024623685B6820467B
:1027100031469847204605F001FC2846BDE8F08187
:10272000F826FF1F8C250100B82501002DE9F04196
:1027300006460D469046FFF73BFF1E4C23685B683C
:1027400020461D4906229847284609F07FFC02468C
:1027500023685B68204629469847204605F0DEFB43
:10276000D6F82871284609F071FC02463B685B6880
:10277000384629469847384605F0D0FB3046414652
:102780000022FFF757FF054623685B6820460B4988
:10279000062298470F36304609F058FC0246236857
:1027A0005B68204631469847204605F0B7FB28462F
:1027B000BDE8F081F826FF1F8C250100B825010037
:1027C00038B5054614461A46FFF7B0FF48B105F183
:1027D0000F00214609F0CEFAD0F1010038BF0020E9
:1027E00038BD002038BD00BF2DE9F8430446C0F8CD
:1027F0002811407B012103F0CFFE607B012103F013
:1028000099FE0A2003F0AAFF607B002103F092FEEC
:10281000642003F0A3FF607B012103F08BFEA04D39
:102820002B685B6828469F4920229847284605F078
:1028300075FB41F658379C4D4FF4FA7604E0D4F816
:1028400028010368DB689847D4F8280103689B686F
:1028500098470028F3D120462946D4F8242133464E
:10286000FFF7AEFF28B11BE0D4F828010368DB684E
:102870009847D4F8280103689B6898470028F3D14B
:10288000204629462A463346FFF79AFF40B930468C
:1028900003F064FFA7F5FA77BFB2002FD4D102E0AE
:1028A0003FB2002F2BDC7E4D2B685B6828467F49AA
:1028B00031229847284605F031FB7B4D20462946BA
:1028C000D4F824214FF4FA73FFF77AFF642003F061
:1028D00045FF20462946D4F824214FF4FA73FFF728
:1028E0006FFF642003F03AFF20462946D4F82421E4
:1028F0004FF4FA73FFF764FF642003F02FFF6C4D71
:1029000020462946D4F824214FF4FA73FFF758FFE4
:10291000642003F023FF20462946D4F824214FF4F5
:10292000FA73FFF74DFF0746002800F0B5802046F8
:102930006049D4F824214FF4FA73FFF741FF642073
:1029400003F00CFF2046FFF733FE554D2B685B6804
:1029500028465949062298472B68DFF880815B6832
:102960002846414603229847284605F0D7FAD4F86E
:10297000286133685B6830464146032298473046F9
:1029800005F0CCFA20464FF4FA710122FFF752FE0F
:102990002B685B68284649490622984704F10F06D0
:1029A000304609F053FB02462B685B6828463146E7
:1029B0009847284605F0B2FA3046414909F056FDDD
:1029C00010B10323A3735FE030463E4909F04EFD8A
:1029D00010B10223A37357E030463B4909F046FD8E
:1029E00010B10123A37312E03046384909F03EFDCF
:1029F00010B10423A37347E03046354909F036FD92
:102A000010B10523A3733FE0A37B012B3CD1244DE0
:102A10002B685B6828462849062298472B68DFF810
:102A2000C0905B682846494606229847284605F02C
:102A300075FAD4F82881D8F800305B6840464946DA
:102A400006229847404605F069FA20464FF4FA718D
:102A50000122FFF7EFFD2B685B6828461749062225
:102A60009847304609F0F2FA02462B685B68284620
:102A700031469847284605F051FA3046154909F085
:102A8000F5FC08B10623A37320461349D4F824218A
:102A90004FF4FA73FFF794FE3846BDE8F88300BFA1
:102AA000F826FF1FA0260100C4260100C826010049
:102AB000FC260100042701008C250100B825010037
:102AC00014270100202701002C27010038270100CE
:102AD0004827010060270100682701001027010036
:102AE0005827010038B5054614461A46FFF7D4FDAD
:102AF00048B105F10F00214609F03CF9D0F1010081
:102B000038BF002038BD002038BD00BFF0B589B007
:102B100004460E4615465049D0F824214FF4FA7366
:102B2000FFF74EFE0346002800F092806B464B4AAA
:102B300007CA03C31A800023ADF80A30ADF80C3081
:102B4000ADF80E30ADF81030ADF81230ADF81430ED
:102B5000ADF81630ADF81830ADF81A30ADF81C30BD
:102B60000DF109003146132209F0FAFA684609F01E
:102B70006DFA08AB1844222300F8203C2046694631
:102B8000374A4FF4FA73FFF7ADFF034600285FD0D2
:102B9000344E33685B6830463149022298472846F4
:102BA00009F054FA024633685B6830462946984774
:102BB000304605F0B3F9D4F82871284609F046FAF2
:102BC00002463B685B68384629469847384605F018
:102BD000A5F9D4F8280105F0A1F9D4F82801036873
:102BE0001B681A21984733685B6830461E490222E9
:102BF0009847304605F092F9A37B043BDBB2012BEA
:102C000009D82046C8210022FFF714FD2046C8211C
:102C10000022FFF70FFD204642F210710022FFF75D
:102C200009FD04F10F052846104909F01FFC70B199
:102C300020464FF47A710022FFF7FCFC28460C492D
:102C400009F098F8D0F1010338BF002300E0002319
:102C5000184609B0F0BD00BF68280100C02401007B
:102C600090250100F826FF1F742801007828010034
:102C70001C28010030B585B004460D461A49D0F82D
:102C800024214FF4FA73FFF79BFD034640B3174A24
:102C900001AB07CA83E80700154AA2FB05125209D7
:102CA00002F130018DF80C10642101FB1255EDB2D8
:102CB000104AA2FB0512D20802F130018DF80D1066
:102CC00002EB8202A5EB420530358DF80E5020460E
:102CD0001946D4F824214FF4FA63FFF703FF0346A3
:102CE000184605B030BD00BF6828010080280100EB
:102CF0001F85EB51CDCCCCCC2DE9F0410D46904653
:102D00001F469DF818600F3009F0B0FB0446A8B1CB
:102D1000284609F09BF920444EB10024394608F0BA
:102D2000AFFF70B101300134E4B2B442F6D108F023
:102D3000ABF9A8F800000120BDE8F0810020BDE853
:102D4000F0810020BDE8F0812DE9F04F85B0044608
:102D50000E46174698464649D0F824214FF4FA7398
:102D6000FFF72EFD054600287DD020464149D4F8C6
:102D700024214FF4FA73FFF723FD0546002872D093
:102D80004FF000090DF1100A2AF8029D3A4D2B6808
:102D9000DFF8ECB05B682846594608229847284679
:102DA00031460A224B4605F0C9F8284605F0B6F828
:102DB000D4F8280103685B68594608229847D4F87C
:102DC00028B1584631460A224B4605F0B7F8584616
:102DD00005F0A4F820464FF47A714A46FFF72AFC22
:102DE00004F10F06304609F031F902462B685B68A2
:102DF000284631469847284605F090F80B23009363
:102E000020461E4952462C23FFF776FF054618B987
:102E10000E9AA2F8009026E02046BDF80E10FFF7AB
:102E2000E3FB2046FFF7C4FB304609F00FF94045AD
:102E300038BF80461FFA88F438463146224609F0EA
:102E40008FF900233B55304609F000F902460A4C41
:102E500023685B68204631469847204605F05EF8B7
:102E60000E9BA3F80080284605B0BDE8F08F00BF98
:102E700068280100C82A0100F826FF1FE02A010087
:102E8000D42A01002DE9F84F0D4690461F469DF8C3
:102E900028609DF82C900F3009F0E8FA04460028CD
:102EA00036D0284609F0D2F80444B9F1000F0AD010
:102EB00000252046314608F0E3FE60B3441C01358E
:102EC000EDB24D45F5D1002F2BDD4FF00009CA467C
:102ED0004D460EE014F80B30B34211D0222B03D034
:102EE0006A1C08F80530D5B2AA4609F10109BD42AD
:102EF00017DA5FFA89FB204609F0A8F88345E9D381
:102F0000BA450BDA002308F805300120BDE8F88F38
:102F10000020BDE8F88F0020BDE8F88F0120BDE853
:102F2000F88F0120BDE8F88F2DE9F04383B0044607
:102F30000E4690461F462F49D0F824214FF4FA73CD
:102F4000FFF73EFC0546002850D020462A49D4F819
:102F500024214FF4FA73FFF733FC0546002845D0CF
:102F6000264D2B68DFF89C905B682846494608226E
:102F70009847284631460A22002304F0DFFF2846FE
:102F800004F0CCFFD4F8280103685B6849460822A6
:102F90009847D4F82891484631460A22002304F085
:102FA000CDFF484604F0BAFF20464FF47A71002264
:102FB000FFF740FB04F10F06304609F047F80246E0
:102FC0002B685B68284631469847284604F0A6FFE0
:102FD0002C230093012301932046094942463B4696
:102FE000FFF750FF05462046FFF7E2FA284603B0F8
:102FF000BDE8F08368280100C82A0100F826FF1FF9
:10300000E02A0100D42A010038B5044601230370E8
:103010008261C161064B0361002580F86050502039
:1030200008F07AF8A066034B1D70204638BD00BF3B
:103030009C2D0100701AFF1F30B583B00C460E495D
:10304000096849B90D4D0092019328460C492A465A
:10305000234608F0EFFD08E0084D00920193284652
:1030600008492A46234608F0E5FD034B1A68013259
:103070001A6003B030BD00BF4022FF1F701AFF1F4F
:10308000A42D0100B82D010070B584B00C46154682
:10309000124B1B6873B9124E10EE100A07F0B4FC05
:1030A000CDE90001029530460E493246234608F02C
:1030B000C1FD0DE00A4E10EE100A07F0A5FCCDE9A7
:1030C00000010295304608493246234608F0B2FD19
:1030D000024B1A6801321A6004B070BD4022FF1F13
:1030E000701AFF1FCC2D0100E02D010010B5084C17
:1030F00023685B68204607490D229847204604F064
:103100000DFF0023044A1370044A136010BD00BF72
:10311000F826FF1F1C2E0100701AFF1F4022FF1F00
:103120002DE9F041FEB004464F1EBFB209B30025A1
:1031300001AE4FF001080CE0606E0368DB68984751
:10314000C0B20D2805D00A2800D115B1705501353F
:10315000ADB2606E03689B6898470028ECD14FB110
:10316000404603F0FBFA013FBFB2B5F5FA7FF0D35A
:1031700000E00025002201AB5A552378D3B1164D4B
:103180002B685B682846154911229847284604F0A9
:10319000C5FE01A808F05AFF02462B685B68284666
:1031A00001A99847284604F0B9FE03E0606E036861
:1031B000DB689847606E03689B6898470028F5D1E4
:1031C00001A8074909F052F910B1204600F072FA3F
:1031D00001A87EB0BDE8F081F826FF1F2C2E01006B
:1031E000402E010070B582B00446084608F02EFF5C
:1031F000024601A86C4908F01DFD656E2B685B68EE
:1032000028466A490A229847284604F087FE204645
:103210004FF47A61FFF784FF654909F027F970B927
:1032200023784BB1634D2B685B68284662491522B1
:103230009847284604F072FE002384F86030656EDB
:103240002B685B6828465D490C229847284604F0A5
:1032500065FE20464FF47A61FFF762FF584909F096
:1032600005F970B923784BB1524D2B685B6828463D
:10327000544917229847284604F050FE002384F84A
:103280006030656E2B685B6828464F490B22984773
:10329000284604F043FE20464FF47A61FFF740FFD2
:1032A0004A4909F0E3F870B923784BB1414D2B68D6
:1032B0005B682846464914229847284604F02EFEAB
:1032C000002384F86030606E03685B684149132214
:1032D0009847666EA569284608F0B8FE024633682E
:1032E0005B68304629469847606E03685B683A49D8
:1032F00003229847606E03685B6838490422984748
:10330000656E2B685B682846354901229847284638
:1033100004F004FE20464FF47A61FFF701FF3149C3
:1033200009F0A4F870B923784BB1224D2B685B6883
:1033300028462D4916229847284604F0EFFD002321
:1033400084F86030606E03685B6828490B229847F8
:10335000656E01A808F07AFE02462B685B68284675
:1033600001A99847284604F0D9FD20464FF47A6118
:10337000FFF7D6FE3E2108F083FC78B923784BB1E5
:103380000C4D2B685B68284619491522984728463A
:1033900004F0C4FD002084F8600003E0002384F8FA
:1033A0006030012002B070BD382F0100D02701002D
:1033B000DC270100F826FF1F3C2F01002C2801000C
:1033C000542F0100682F0100E42701001C28010090
:1033D000802F01000028010010280100982F010013
:1033E000A025010014280100A02F0100A82501003C
:1033F000B82F01002DE9F041ADF5815D0546884605
:1034000017468C4C09A88C49226808F013FC2368E5
:103410000133236000248DF8804010AE874B009369
:1034200030468749874A434608F004FC864B0093A0
:10343000864B01930296864B0393864B0493059724
:10344000854B069320A88549854A09AB08F0F2FB15
:103450009DA88449BF2202F029FC0DF1600E76463A
:10346000814F0FCF0FC697E8070003C626F8022B3F
:10347000120C32707D4B0093CDF804E00DF58D6099
:103480007B499DAA20AB08F0D5FB7A4E33685B6878
:10349000304679490D2298470DF58D6008F0D6FD2C
:1034A000024633685B6830460DF58D6198473046BB
:1034B00004F034FD013428460DF58D61FFF792FECE
:1034C000002840F0AF80052CF4D16A4C23685B687B
:1034D00020466A4920229847204604F01FFD654C8B
:1034E00023685B68204666490B2298470DF58D607E
:1034F00008F0ACFD024623685B6820460DF58D613F
:103500009847204604F00AFD23685B6820465D4921
:103510000322984723685B6820465B49132298473B
:1035200023685B68204659490122984723685B68F5
:103530002046574904229847204604F0EFFC6C6E61
:103540000DF58D6008F082FD024623685B68204619
:103550000DF58D61984700238DF8683428464FF4A7
:103560007A61FFF7DDFD4B4908F080FF78B92B78D1
:103570004BB1404C23685B68204647491822984766
:10358000204604F0CBFC002085F860004EE06C6E15
:1035900023685B68204641490B229847204604F087
:1035A000BDFC28464FF47A61FFF7BAFD3C4908F0AC
:1035B0005DFF78B92B784BB12E4C23685B682046B1
:1035C000384916229847204604F0A8FC002085F8C8
:1035D00060002BE06C6E23685B68204632490A224B
:1035E0009847204604F09AFC28464FF47A61FFF78A
:1035F00097FD2E4908F03AFF78B92B784BB11D4C56
:1036000023685B6820462A4915229847204604F023
:1036100085FC002085F8600008E0002385F8603014
:10362000012003E0052C7FF45AAF4EE70DF5815DD4
:10363000BDE8F0818408FF1FD01E01009830010012
:103640008030010088300100B0300100C03001003E
:10365000CC300100D8300100F0300100D81E01004C
:10366000A03001000C310100CC310100701AFF1FA5
:10367000E8310100F826FF1FF43101000432010097
:1036800028320100343201005C2401003C2E01008C
:10369000982F0100C02501003832010020280100C8
:1036A0005C30010068300100D0270100DC270100F8
:1036B0003C2F010010B504460920012102F06CFFE7
:1036C0000920002102F036FF4FF47A7003F046F82B
:1036D0000920012102F02EFF4FF4FA6003F03EF8BA
:1036E0000920002102F026FF40F6B83003F036F83A
:1036F00020464FF47A61FFF713FD10BD08B541660F
:10370000FFF7D8FF012008BD10B5054C20461E214B
:1037100000F09EF820460349034A07F0ABFC10BDB9
:103720004422FF1F713800003C08FF1F704700BF94
:1037300001207047837B6BB9084B18784030084BE9
:103740001B78C01A074B184006D5013860F03F00BF
:10375000013070474FF0FF30704700BF5C22FF1F01
:10376000A022FF1F3F000080054B1B78054A1278FE
:103770009A421ABF044AD05C4FF0FF30704700BF36
:10378000A022FF1F5C22FF1F6022FF1F0023837304
:10379000084B1B78084A12789A4207D0074AD05C37
:1037A000013303F03F03034A137070474FF0FF30BB
:1037B000704700BFA022FF1F5C22FF1F6022FF1F77
:1037C00010B50446022912D1407B002102F0E4FE2C
:1037D000607B012102F0E0FE607B002102F0AAFE86
:1037E000607B402828BFFF2002F044FE10BD032963
:1037F00009D1407B002102F0CFFE607B012102F065
:10380000CBFE72B610BD042911D1407B002102F01D
:1038100091FE607B002102F0BFFE62B6607B402813
:1038200028BFFF200949042202F0F6FE10BD407BAC
:10383000002102F07FFE607B002102F0ADFE607B84
:10384000402828BFFF2002F015FE10BD11390000EE
:1038500010B4002202714FF47A7484600273034C36
:103860000460827341735DF8044B7047603201005D
:1038700010B50446034B03600021FFF7A1FF20466B
:1038800010BD00BF603201002DE9F0410746407BCA
:1038900002F074FE002833D044F2D803013B7FF4D9
:1038A000FDAF07240125002648F2B0184346013B2E
:1038B0007FF4FDAF787B02F061FE08B92E4301E092
:1038C00026EA05066D00EDB2013CEFD148F2B013D7
:1038D0001A46013A7FF4FDAF013B7FF4FDAF094B7F
:1038E0001A78531C03F03F03074909788B4203D130
:1038F0000123BB73BDE8F08104498E54014A137063
:10390000BDE8F0815C22FF1FA022FF1F6022FF1F85
:1039100008B5034B186808B1FFF7B6FF08BD00BF34
:103920005822FF1F10B582B002AB03F8011D0268D8
:10393000546819460122A04702B010BD10B50446D4
:10394000C3691BB901230371002010BD0020187149
:10395000E06992B201F008FCE3691B7913B101231D
:103960002371002010BD00BF00B583B0C06960B1F5
:103970000DF10701012201F087F901280CBF9DF824
:1039800007004FF6FF7000B201E04FF0FF3003B0C8
:103990005DF804FB30B583B00446C06978B10DF121
:1039A0000701012201F070F901280AD19DF80750A2
:1039B000E069C168013901F02BFA284603E00020D4
:1039C00001E04FF0FF3003B030BD00BF08B5C06963
:1039D00008B101F055FA08BD2DE9F04104460E4644
:1039E0009046002303714FF47A7282600373114B87
:1039F0000360242007F090FBE061B8B1354607462C
:103A000006F1200E3E4628686968AA68EB680FC672
:103A1000103537467545F5D12868306004F10D0042
:103A200041460C2208F09CFB002363762046BDE84B
:103A3000F08100BF80320100002202714FF47A71E0
:103A40008160027302490160C2614273704700BF26
:103A500080320100014B0360704700BF80320100DB
:103A6000C3690BB1D86870474FF0FF30704700BF93
:103A7000C3690BB1986970470020704738B5044698
:103A8000C36963B1FFF7F4FF05462046FFF7E8FF7F
:103A9000281A47F6FF73984228BF184638BD002001
:103AA00038BD00BF10B50446C06930B101F014FA4A
:103AB000E06907F039FB0023E36110BDC36923B15E
:103AC0009879003018BF012070470020704700BF70
:103AD00038B504460A46FE290CD1FE23037000F0D7
:103AE0002FFA054600F018FAA070D5F1010038BF92
:103AF000002002E0012100F0E5FDA8B1251D2846C7
:103B00002146012201F00CFE28B928462146002258
:103B100001F006FE50B104F12C00294601F08AF8AC
:103B2000003018BF012038BD002038BD002038BD4E
:103B30002DE9F04F99B081469346019300238DF80B
:103B40001C30394A06928DF81E308DF840300F92A5
:103B50008DF8423006A8043101F06CF85C460FAED7
:103B600006AD4FF02F084FF0000A2CE023782F2BE2
:103B700001D1013427E03F1BFFB20C2F28BF0C27D7
:103B800002A821463A4608F0EBFA18AB3B4403F88A
:103B900058AC304601F0A0F93046294602AA01236C
:103BA00001F04CFA40B9002389F804301E4AC9F8E4
:103BB000002089F8063032E03C44284601F08CF9B8
:103BC0002B4635461E462046414608F059F8074622
:103BD0000028CBD1CBEB0404019B1C602B7989F826
:103BE0000430114BC9F800306B7989F80530AB7996
:103BF00089F80630AB68C9F80830EB68C9F80C30B2
:103C00002B69C9F810302B7D89F81430AB69C9F8DD
:103C10001830EB69C9F81C302B6AC9F820304846C7
:103C200019B0BDE8F08F00BFA0320100F0B5A7B019
:103C3000044615461F4602A801ABFFF779FF01991C
:103C40006E18695C19BB9DF80C308DF85430344BFC
:103C500014939DF80D308DF855309DF80E308DF889
:103C60005630049B1693059B1793069B18939DF85B
:103C70001C308DF86430089B1A93099B1B930A9B98
:103C80001C93204614A9274AFFF7A6FE45E0002111
:103C90008DF83010224B0B938DF832109DF80E30BA
:103CA0001BB92046FFF7C8FE37E00BA802A9324631
:103CB0003B4601F0C3F918B92046FFF7BDFE2CE0E2
:103CC00002A801F009F917F0060F03D00BA811990B
:103CD00001F09EF89DF830308DF87830104B1D9330
:103CE0009DF831308DF879309DF832308DF87A308A
:103CF0000D9B1F930E9B20930F9B21939DF84030AB
:103D00008DF88830119B2393129B2493139B25934A
:103D100020461DA93246FFF75FFE204627B0F0BDC2
:103D2000A0320100C01B0100064B00229A70022144
:103D3000596083F8242083F830200349D96283F83E
:103D400032207047A422FF1FA032010040F24343FB
:103D5000074A1360043213604FF488610432116023
:103D6000043213600432136004321360704700BFE2
:103D700000D004400023064A13600432136004326A
:103D8000136004321360043213600432136070470E
:103D900000D00440114B196821F008021A60104A43
:103DA0000A40104340F460221A60083B1B6813F07D
:103DB000080F07D10B4B0C490A6812F0080F01D10C
:103DC000013BF9D140F4602242F00802034B1A6033
:103DD00004331A6842F480121A6070472C100B40AA
:103DE0000700F0FFFFFF0F0024100B40224B1A6862
:103DF00042F080021A60214A136813F0010FFBD1D0
:103E0000136813F0020FF7D11D4B18604FF0807349
:103E100019481C490268013B0A4002D1002BF9D124
:103E200002E00BB1012A08D0134A136843F470234F
:103E300043F001031360012070470F4B1B6813F020
:103E4000800F06D00C4B1A6842F001121A60032052
:103E50007047094B1B6813F4803F06D0064B1A6865
:103E600042F001121A6005207047034B1A6842F0B5
:103E700001021A600020704730100B4024100B40E4
:103E80000C100B4001000E00F8B50022104B1A6018
:103E90001048FFF7ABFF63240F4D0D4F0D4E06E0AA
:103EA00000233B603046FFF7A1FF013C06D02B68A2
:103EB00013F0040F08D00028F2D0F8BD30B90CB1CF
:103EC0000020F8BD0520F8BD0028F9D0F8BD00BFDE
:103ED00008100B400000DB0C24100B4010B504460A
:103EE0000022094B1A600948FFF780FF50B9084BC0
:103EF0001B68054B1C600748FFF778FF18B9044A98
:103F0000126810BD10BD10BD08100B4000001A371C
:103F100010100B4000000229084B1B784BB9074BCF
:103F20009B7843B1054B5B78002B14BF0320022024
:103F30007047002070470120704700BFF822FF1F24
:103F4000F8B5A24B1A6842F400321A6008331A68B6
:103F500042F400521A6004331A6842F002021A60F6
:103F600004331A6842F002021A60994B1A6822F070
:103F700001021A60FFF7FEFE964A974B1A601A4636
:103F8000136813F0807FFBD10022944B1A604FF42A
:103F90008132BC3B1A60282224331A604FF0101281
:103FA0001C331A6041F29000FFF7F4FE8C4A13684C
:103FB00013F0030FFBD1FFF7C9FE4FF6FF72894BD9
:103FC0001A60894A04331A604FF4FA71824A1368FE
:103FD00043F000631360136813F0006FFBD10139E5
:103FE000F5D1804B1A6842F080021A600C3B1B68C6
:103FF00013F4803F00F01E8125E17C4B1B684FF4D9
:10400000D5727B4B1A607B48FFF7F0FE20B111E0C0
:104010000120794B1870F8BD744B1A681B68B3F512
:10402000D57F03D00120744B1870F8BD0122724B6C
:104030005A7005E0052803D001206F4B1870F8BDB9
:104040000020FFF74BFF18B101206B4B1870F8BD33
:10405000664B1B6813F4401F1FD0674B5B78002B27
:10406000664F08BF4FF440170024604E644D013482
:104070003846FFF733FF002840F0DA803368002B22
:10408000C0F2F080AC42F2D104E0584B1B6813F050
:10409000804F02D10022584B5A700022544B1A60B4
:1040A0005848FFF7A3FE48B9504B1B680022504BFD
:1040B0001A605548FFF79AFE20B111E001204E4BDF
:1040C0001870F8BD494B1A681B681B0C1B044A4A40
:1040D0005360474A13604D48FFF788FE20B1C6E0A1
:1040E0000120454B1870F8BD494B1A68120E424B1F
:1040F000DA70484B1B6813F4400F16D1444B196813
:10410000186800F00300043B1A681B68920D42EA2D
:1041100080220132C3F3C21302339A40C1F3032356
:10412000093B9A40344B9A6009E0334B01229A7064
:10413000394A1268C2F31522013292029A602E4B5C
:104140005A682B4B1A603548FFF750FE50B9274B81
:104150001B684FF40072264B1A603148FFF746FE89
:1041600020B10FE00120244B1870F8BD1F4B1B68D5
:10417000214B5A681E4B1A602A48FFF737FE002869
:1041800079D103E001201C4B1870F8BD174B1B6858
:104190000222174B1A602448FFF728FE00286AD134
:1041A000124B1B68214B1A6822F006021A601A682B
:1041B00042F002021A60FFF7DDFD4FF49070FFF746
:1041C000E9FDFFF7C3FD0C4B1878F8BD30800440C3
:1041D00000D00040008000012C100B40C0100B40AC
:1041E00024100B4030100B40BB007F1110100B400F
:1041F00008100B4000001A08F822FF1F0000304092
:10420000A08601000000090200001A03000009094D
:1042100018100B401C100B4014100B4000001B0723
:1042200000001A1000001A3700001A0628100B4070
:104230000120F8BD124B0220187000225A605A70FB
:104240009A709A60F8BD0E4B002018705860587034
:10425000987098600B4B1860FFF7C8FD00283FF47A
:10426000CCAED5E6084B9C423FF614AF0DE70120DB
:10427000034B1870F8BD0120014B1870F8BD00BF4A
:10428000F822FF1F08100B409F86010070B50446FE
:10429000364B1B78002B65D1344B5B7803B9490250
:1042A0004FF6FF72324B1A60283B19604FF481328F
:1042B000043B1A602F48FFF799FD002854D12E4B7C
:1042C0001B682B4A136843F02001116013F4E00FC0
:1042D00012D007E02B6843F020062E60403213F422
:1042E000E00F0FD043F4E00343F02003204A1360B3
:1042F000FFF7CAFD01202CE0224604F5E0701F4CB8
:104300001F491B4D236813F4006FFBD00B6813602B
:104310000B6853600B6893600B68D3600B68136184
:104320000B6853610B6893610B68D3610B68136270
:104330000B6853620B6893620B68D3620B6813635C
:104340000B6853630B6893630B68D3638242C1D1DC
:104350000020074A136813F0020FFBD0094A044BF0
:104360001A6070BD032070BD70BD00BFF822FF1F32
:1043700030100B4010003A1110100B4024100B406D
:1043800020100B402200000170B506462D4B1B7813
:10439000002B53D12B4B5B7803B949024FF6FF72C8
:1043A000294B1A60283B19604FF48132043B1A6094
:1043B0002648FFF71BFD002842D1254B1B6806F558
:1043C0000070214D234C2B6813F0100FFBD02B688D
:1043D00013F4E00F0AD01C4A136843F4E00343F0DF
:1043E00010031360FFF750FD01201EE006F14001AD
:1043F000334653F8042B22608B42FAD140362B68A7
:1044000043F010032B602B6813F4E00F0AD00E4A20
:10441000136843F4E00343F010031360FFF734FD27
:10442000012002E08642CED10020074A136813F033
:10443000020FFBD0084A044B1A6070BD032070BD08
:1044400070BD00BFF822FF1F30100B4000003A186B
:1044500010100B4020100B4012000001084B1A688E
:1044600042F480621A604FF00042DA62FF225A631F
:104470001A46D36A002BFCDA014B986BC0B2704726
:1044800000C00240064B1A6842F480621A604FF086
:104490000042DA6258631A46D36A002BFCDA70478E
:1044A00000C0024008B505281CD8DFE800F003076B
:1044B0000B0F13170E4A0F4B1A6016E00C4A0D4BE8
:1044C0001A6012E00C4A0B4B1A600EE00B4A094BC3
:1044D0001A600AE00A4A074B1A6006E0094A054BCF
:1044E0001A6002E0084A034B1A6001F06FFB08BD36
:1044F000000001B80823FF1F011000380320003816
:1045000001000238043000380650013808B5007840
:10451000012102F00FF8114B1B78F3B100220F4B71
:104520001A700F4B1B78C3B113F0010F03D00D4B62
:104530001A680D4B1A600A4B1B7813F0020F03D058
:10454000084B5A68094B1A60054B1B7813F0040F8F
:1045500003D0044B9A68064B1A6008BD0C23FF1F5A
:104560005825FF1F4C25FF1F00E100E004E100E09B
:1045700008E100E010B5244B1B78002B3ED101224E
:10458000214B1A70214B1A68214B1B78002B28D025
:1045900072B61F4B1B7813F0010F07D01D4B1C6820
:1045A0001D49096821401D4C21601960184B1B787A
:1045B00013F0020F07D01A4B1C68174949682140B5
:1045C000164C61601960124B1B7813F0040F07D072
:1045D000144B1C68104989682140104CA160196077
:1045E00062B6114BDB68934208D00F4B0F4919603C
:1045F000DA6042F080421A610D4A1A6000780021A8
:1046000001F098FF10BD00BF0C23FF1F0823FF1F00
:104610005825FF1F80E100E04025FF1F4C25FF1FAC
:1046200084E100E088E100E000C0024001401F009A
:1046300000001F8070B582B00E460B4B1B680093C4
:10464000009C094DA4B2FFF709FFFF2807D02B6893
:104650000193019B9BB21B1BB342F4DB01E00120E1
:1046600000E0002002B070BD6025FF1FF8B50546D0
:104670000F4616464FF49671FFF7DCFF47F04000F7
:10468000FFF700FF182426FA04F0C0B2FFF7FAFE85
:10469000083C14F1080FF6D127B1082F0CBF872072
:1046A000FF2000E09520FFF7EDFE0024FFF7D6FE87
:1046B000687010F0800F03D00134B4F5807FF5D11D
:1046C000F8BD00BF2DE9F04F87B0044601910023EB
:1046D000837002707D4B1B680393039FBFB210462B
:1046E000012101F027FF2078012101F055FF2078FA
:1046F000012101F01FFF764B1A6842F480521A60C4
:104700000620FFF7CFFE734B1A68734B1B78002B04
:1047100028D072B6704B1B7813F0010F07D06F4B87
:1047200018686F49096801406E48016019606A4B5A
:104730001B7813F0020F07D06B4B18686849496863
:104740000140684841601960634B1B7813F0040F07
:1047500007D0664B186862498968014061488160EA
:10476000196062B6624BDB68934200F0A080604B38
:1047700060491960DA6042F080421A615E4A1A604C
:1047800095E02846FFF77EFE013E16F0FF06F8D1C1
:10479000514B1B78C3B113F0010F03D0514B1A6872
:1047A000564B1A604C4B1B7813F0020F03D04D4B45
:1047B0005A68534B1A60484B1B7813F0040F03D010
:1047C000484B9A684F4B1A602046FFF7D3FE4FF0D4
:1047D0000008DFF8F89008E0D9F800300493049B53
:1047E000DB1B9BB2B3F5FA6F5DD8204641464246CB
:1047F000FFF73CFF054660700128EDD120460821F7
:104800004FF4D572FFF732FF10F0040F04D00123EC
:10481000A3704FF0000A0FE04FF00408FFF71EFEF0
:10482000607008F1FF3313F0FF08F7D1AA283AD1DE
:104830000223A3704FF0804A4FF037094FF0000871
:10484000DFF888B008E0DBF800300593059BDB1B40
:104850009BB2B3F5FA6F26D8204649464246FFF789
:1048600005FF204629215246FFF700FF607000280F
:10487000E9D1A378022B0ED120463A210022FFF77E
:10488000F5FE80B9FFF7EAFD00F0C000C02811D1A5
:104890000323A3700EE02046FFF738FE0198FFF7D0
:1048A00001FE2E460DE02046FFF730FE09E00A2605
:1048B000FF2566E7FFF7D2FDFFF7D0FDFFF7CEFD3E
:1048C000E9E7304607B0BDE8F08F00BF6025FF1F65
:1048D0003C8004400823FF1F5825FF1F80E100E0B3
:1048E0004025FF1F4C25FF1F84E100E088E100E028
:1048F00000C0024001401F0000001F8000E100E0F6
:1049000004E100E008E100E070B582B004460E4B1F
:104910001B680093009D0C4EADB207E03368019315
:10492000019B9BB25B1BB3F5967F09DCFFF796FDFD
:104930006070FF28F2D0FE2814BF0020012000E0A4
:10494000002002B070BD00BF6025FF1FF8B504460F
:104950000D4616468378032B18BF4D02FFF70AFE5B
:10496000204611212A46FFF781FE002847D1204624
:10497000FFF7CAFF002842D0234B244A1A60244A7A
:104980005A635A635A6306F5FD7E764513D2B01C0E
:1049900006F5FE771946CB6A13F0F00FFBD04A6399
:1049A0008B6BC3F3072500F8025C00F8013C023072
:1049B000B842F0D100E0B64606F5007676450DD94E
:1049C0007146114AD36A13F0F00FFBD0936BC3F317
:1049D000072008704B7002318E42F3D80A4B0B4A05
:1049E0001A600B4A5A631A46D36A13F0F00FFBD0D1
:1049F000054B9B6B2046FFF789FD0120F8BD204643
:104A0000FFF784FD0020F8BD00C0024000041F80B5
:104A1000FFFF0090F8B506461E4B186840F4806012
:104A200018604FF00040D8625963114602F50077D4
:104A30000446DA6A002A08DBFBE7DA6A002A0DDBA3
:104A4000FBE7D36A002B15DBFBE708460A781D68F5
:104A500045F480651D60DC625A63EEE742781D68AC
:104A600045F480651D60DC625A630231B942E0D1D1
:104A7000084AE6E7FF20FFF705FDFF20FFF702FDEC
:104A8000FFF7ECFC707000F01F00052814BF002039
:104A90000120F8BD00C0024070B5044616460D4620
:104AA00029B38378032B18BF4D02FFF763FD20461F
:104AB00018212A46FFF7DAFDC8B92046FE21324602
:104AC000FFF7A8FF98B120464FF41671FFF7B2FD2B
:104AD00068B120460D210022FFF7C8FD38B9FFF765
:104AE000BDFC20B92046FFF711FD012070BD204616
:104AF000FFF70CFD002070BD014A024B1A607047A1
:104B0000032000380823FF1F10B50446006A012166
:104B100004F1080200F07AFD034650B1E3693BB9A5
:104B2000A368E361637963F07F036371012300E0AD
:104B30000123184610BD00BF70B50646FFF7E4FF1D
:104B40000346E0B1336AB268023A197C02FA01F511
:104B50005A6915441C794CB1013D281900F08CFCB0
:104B6000034660B1013C14F0FF04F6D1336A1B7CAC
:104B70004FF400729A40B3691344B361012318469D
:104B800070BD00BF10B50446006900F045FC20B1BF
:104B9000207D034B03EB401010BD002010BD00BF73
:104BA0001C23FF1F2DE9F00100232022CA540133EA
:104BB0000B2BFBD10138002507264FF008084FF0DA
:104BC0000A0C1B4F21E02E2C01D03A4606E00A2E9B
:104BD00024D04546664618E0A34221D012F8013F92
:104BE000002BF9D1AE421DD3A4F12103DBB25D2B22
:104BF0001AD86B1CDBB20D44A4F16102D2B2192A9F
:104C00009CBF203CE4B22C701D4610F8014F002CD4
:104C1000D9D10878203818BF012006E0002004E030
:104C2000002002E0002000E00020BDE8F001704715
:104C3000A732010038B504460D4683790BBB91F8C5
:104C40002020102A07D1022383710023C3614B8CDB
:104C50005B0183610CE0202A14D103238371496A2C
:104C6000C161284604F1180200F05CFC034648B11B
:104C70002562012363710022A260E2602261227535
:104C800000E00023184638BD2DE9F04F83B00446FC
:104C9000884601928379002B75D0437913F0010F78
:104CA00074D08269C368D11A0198884201D98BB245
:104CB0000193019B002B63D01D46DFF80CA1DFF8A8
:104CC0000C91DFF80CB1E368C3F30807A279022A5C
:104CD00004D1226A516A01EB53211BE0206A067954
:104CE000013E06EA5326F6B25FB956B913B9E36935
:104CF000A36006E0224652F8081F00F0DDFB002802
:104D000047D0226AA368023B117C03FA01F1526981
:104D100011443144C7F500739D42C6BF1E46B6B26A
:104D20002E46637913F0400F02D1B6F5007F3AD1D9
:104D3000D9F8003099423DD135E04046FFF7A6FA58
:104D4000D0F1010038BF002002E04246FFF7FEFD2F
:104D500010B3B0440DE05744B819874209D03B4620
:104D6000424613F8011B02F8011B8342F9D1C71B0D
:104D7000B844E3683344E360AD1BADB2002DA2D16B
:104D8000019B98B20DE04FF6FF700AE04FF6FF70FE
:104D900007E04FF6FF7004E04FF6FF7001E04FF6BA
:104DA000FF7000B20CE00846002100F035FB00283F
:104DB000D1D1F4E7DBF800000378FE2BC5D1BCE7C6
:104DC00003B0BDE8F08F00BF1C23FF1F8808FF1F42
:104DD0001823FF1F30B583B004468379012B0FD908
:104DE000C5680DF107010122FFF74EFF012809D127
:104DF000E3681F33E36005F4F070044B184402E0ED
:104E0000002000E0002003B030BD00BF1C23FF1FC6
:104E1000F8B504460F4683797BB382698A422BD367
:104E2000022B02D1E160012327E021B90023836036
:104E3000C360012321E0C368026A157C09355A1E4C
:104E4000EA40013921FA05F5AA4200D813B9E3690D
:104E5000A3600AE0AD1A08E0206AA168324600F0BB
:104E60002BFB013D034610B907E004F10806002DB5
:104E7000F2D1E760012300E000231846F8BD00BF2F
:104E800038B50446807918B394F90530002B1BDA45
:104E900020460121FFF776FE0546C0B1A379012B1C
:104EA0009CBFA369C361A38B4383E38B8382094BBC
:104EB0001B682BB1183005F1160198472B8B6B82BC
:104EC000637903F07F03637100F066FA38BD002058
:104ED00038BD00BF1023FF1F10B50446FFF7D0FFF9
:104EE000034610B10023A3710123184610BD00BF73
:104EF000F0B583B004460D468379012B4ED142793B
:104F000002F0020202F0FF01002A49D08269AA429F
:104F100048D3002A47D0C6682946FFF779FF0346E1
:104F2000002840D04DB9206AE16900F0D3FB034668
:104F3000002838D00023E3611DE0206AA16801AA9F
:104F400000F0BAFAA8B1206A019990F820704FF6E3
:104F5000F872164B102F08BF134699420BD200F07F
:104F6000B9FB30B1206AA1686FF0704200F006FB17
:104F700008B9002317E0A561637963F07F036371CB
:104F80002046FFF77DFF034668B12046B54234BF97
:104F900029463146FFF73CFF034604E0002302E0C8
:104FA0000B4600E00023184603B0F0BDF8FFFF0FEA
:104FB00038B5044615461F4B03EB4113DA7A12F05D
:104FC000110F02D015F0420F2CD121751A4A126828
:104FD0002261998A0904E1615A8B1143E161D87A0F
:104FE00010F0180004D1DB69A3610123A3710AE06A
:104FF000102819D1206A04F1180200F093FA034630
:10500000A8B10423A37105F00F0363710023A3600B
:10501000E36015F0400F09D020461946FFF768FFFE
:10502000034604E0002302E0002300E001231846C9
:1050300038BD00BF1C23FF1F8808FF1F2DE9F04F5C
:1050400085B005460C469A468679002E7FD11046DB
:1050500001A9FFF7A7FD00287BD0236A2B62002758
:10506000A760E760DFF8FC904FF0010825E0C1F38E
:10507000431B2046FFF7AEFE014600286AD00378A6
:105080000BB1E52B09D12FB985F814B0D9F8003050
:105090002B6147460B7883B913E001A80B2206F079
:1050A000E7FA50B90AF03003302B53D0284659465E
:1050B0005246FFF77DFF06464CE0E168A36999423E
:1050C000D5D30AF01203122B44D137B1284601215F
:1050D000FFF758FD044660B93CE0A379022B39D0B4
:1050E0002046FFF729FD0646002833D000232B7504
:1050F0001A4C20460021202206F04EFB01AB03CBC8
:10510000206061601A889B782281A372144B1B680F
:105110002BB104F1100004F10E01984707E02123A0
:105120002374282363740023A3730823E373238A5F
:1051300063822383E389E38200F02EF9064648B1B7
:105140002846297D5246FFF733FF064602E0002637
:1051500000E00646304605B0BDE8F08F1C23FF1F77
:105160001023FF1F8808FF1F2DE9F04F85B004466C
:10517000884601928379012B40F0CB80437913F06C
:10518000020F00F0C68013F0040F08D08169C368D5
:105190008B4204D0FFF73CFE002800F0BA80019A51
:1051A000002A00F099801646DFF8CCA1DFF8CCB1D8
:1051B000206AE76890F8049009F1FF3909EA572955
:1051C000C7F3080719F0FF092AD1002F40F0A58086
:1051D000A16851B9E36933B92046FFF795FC00286F
:1051E00040F0AC8095E0A360A8E003AA00F064F969
:1051F000002800F0B580039B226A92F820004FF649
:10520000F871594A102808BF0A46934206D320462F
:10521000FFF77AFC002840F091807AE0A3608DE0EF
:10522000C7F50075ADB2AE4238BF3546A368023B44
:10523000027C9340426913449944B5F5007F1ED126
:10524000DBF800304B4504BF4FF0FF33CBF80030A4
:10525000464B18680378FE2B08D140464946FFF7B5
:1052600093F8D0F1010038BF002003E049464246E0
:10527000FFF712FC00284CD008F5007824E07FB935
:10528000E268A3699A420BD300F086F8002840D068
:10529000CBF80090364A137843F00103137005E011
:1052A0004846012100F0B8F8002832D05744781958
:1052B000874209D03B46424612F8011B03F8011B06
:1052C0008342F9D1C71BB844761BB6B2E3681D44CC
:1052D000E560002E7FF46CAFE368A269934205D9C4
:1052E000A361637963F07F03637108E0214B1B685E
:1052F0002BB1019B1BB1637963F07F036371637909
:1053000013F0080F03D02046FFF7BAFD08B101984B
:1053100026E001232371002022E0C7F50075ADB21D
:10532000AE4238BF3546A368023B027C03FA02F95D
:1053300043699944B5F5007FB2D181E7B6F5007FA6
:1053400034BF35464FF40075236AA268023A197CCF
:1053500002FA01F95B699944B5F5007F90D16FE7D6
:1053600005B0BDE8F08F00BFF8FFFF0F1823FF1F47
:105370001C25FF1F1023FF1F1C23FF1F8808FF1F72
:1053800000B583B002AB03F8011D19460122FFF7F7
:10539000EBFE03B05DF804FB08B51A4B1B78002B3D
:1053A0002ED0194B1868194B19680378FE2B07D1BA
:1053B0001748FEF7E9FFD0F1010038BF002002E0F6
:1053C000134AFFF769FBE0B1124B196899B10E4B14
:1053D00018680378FE2B07D10D48FEF7D5FFD0F1F2
:1053E000010038BF002002E0094AFFF755FB40B139
:1053F0000022084B1A600022024B1A70012008BDDF
:10540000012008BD1C25FF1F1823FF1F8808FF1F50
:105410001C23FF1F1423FF1F38B504460D46124BF3
:105420001B68834219D0FFF7B7FF0346D0B10F4B7B
:1054300018680378FE2B08D10D482146FEF726FF99
:10544000D0F1010338BF002304E02146084AFFF7EA
:105450007DFA034633B1044B1C60064B1A781543A2
:105460001D700123184638BD8808FF1F1823FF1F31
:105470001C23FF1F1C25FF1F10B50446FFF78CFFE0
:10548000034680B109494B1E01F2FF11002203F8C7
:10549000012F8B42FBD1064B1C60064B1A7842F061
:1054A00001021A700123184610BD00BF1C23FF1F04
:1054B0008808FF1F1C25FF1F70B504460D461646C1
:1054C000C36801338B4225D3C36990F82020102A8A
:1054D0000CBF080AC8091844104B1B68984204D036
:1054E0000021FFF799FF0346A8B194F82030102B54
:1054F00006D1EDB20A4B33F81530336001230AE0D0
:1055000005F07F05064B53F8253023F070433360D8
:10551000012300E00023184670BD00BF8808FF1F6C
:105520001C23FF1F2DE9F04383B0044602AE46F86A
:10553000041D914600254FF400780F4F2046019935
:105540003246FFF7B9FF034688B1237C08FA03F31C
:105550001D4494F820104FF6F873102914BF3946F3
:105560001946019B8B42E9D3C9F800500123184624
:1055700003B0BDE8F08300BFF8FFFF0FF8B50446A5
:105580000D461746012931D9C368013399422FD8F6
:10559000C36990F82020102A0CBF0E0ACE091E44C1
:1055A000164B1B689E4205D030460021FFF734FFA2
:1055B000034600B394F82030102B04D1EDB2104B09
:1055C00023F8157004E005F07F050D4B43F82570B6
:1055D0000C4B1A7842F001021A70237E012B09D974
:1055E000A3681E44084B1E60012304E0002302E070
:1055F000002300E001231846F8BD00BF8808FF1F04
:105600001C23FF1F1C25FF1F1423FF1F2DE9F04F34
:1056100085B006468A46009217681FB101370023FD
:10562000019305E00768012914BF002301230193BA
:10563000F36803F10108DBB13C4600254FF0020995
:10564000CB46A0453CBF4C465F463046214603AAA8
:10565000FFF732FF60B1039B0BB1671C03E0631CD3
:10566000DB1B534506D001350134F368AB42E8D863
:1056700000232AE0304621466FF07042FFF77EFF9C
:10568000034648B921E0651E304629462246FFF709
:1056900075FF034618B918E0BC42F4D803E0BD42D8
:1056A00001D92C46EFE7009B196829B130463A46EC
:1056B000FFF764FF034640B1009B1F60019B1BB1D5
:1056C00001373760012300E00123184605B0BDE82B
:1056D000F08F00BFF0B583B005460C46022303608F
:1056E00000260E4F2846214601AAFFF7E5FE80B1AD
:1056F000284621463246FFF741FF50B1019C95F8FC
:1057000020104FF6F873102918BF3B469C42E9D38E
:1057100001E0002000E0012003B0F0BDF8FFFF0F22
:10572000F8B50546494B19601446DAB1042A7FD80A
:1057300000200146FFF770FE0346002800F083803A
:10574000434B03EB041494F8AE3104F5D47413F016
:105750007F036FD1D4F81210632974D9D4F80E40A6
:105760000CB970E0002420460021FFF755FE0346E7
:10577000002868D0364BB3F80B30B3F5007F5BD10F
:10578000334B1B7C002B5ED0314AD289002A55D086
:105790002F4A517B002953D02B76297100232B747B
:1057A000012003E05A1C2A74072B4BD82B7C1E4681
:1057B00000FA03F29142F5D1254BD98A01B9596A11
:1057C000A960234BDA892244EA61B3F8110087B259
:1057D00068841B7C03FB01236B627A0102F2FF12D7
:1057E00003EB62236B611A4AB2F813200AB9184A14
:1057F000126AE31A134423FA06F6EE6040F6F473D5
:105800009E4204D80C2385F8203001231BE04FF67C
:10581000F4739E4204D8102385F82030012312E04F
:105820000B4BDB6A6B62202385F8203001230AE0F2
:10583000002308E0002306E0002304E0002302E048
:105840000B4600E000231846F8BD00BF1823FF1FD9
:105850001C23FF1F2DE9F00F5B4BA3FB00425209F5
:10586000C2EB0214A0EB84000870A3FB02A35B0947
:10587000C3EB0310A2EB80024A70544CA4FB030854
:105880004FEA181808EB4802A3EBC2038B70474697
:1058900008F104004E4AA0FB0223C21A03EB520394
:1058A0009B08C3EBC303C01A0130C8700020024636
:1058B00040F26D1C474C4FF064094FF4B77BC5B202
:1058C00005F2B273ABB113F0030F14D184FB03A63E
:1058D000761109FB163686B984FB03A6F6114FF440
:1058E000C87A06FB1A36002E0CBF4FF4B776664610
:1058F00004E0664602E0664600E05E46324401305F
:105900009742DCD28D71CBB113F0030F19D131481E
:1059100080FB03404011642404FB1030A0B92D48E3
:1059200080FB03A0C0114FF4C87400FB14300028A2
:1059300040F26D1408BF4FF4B77407E040F26D14E5
:1059400004E040F26D1401E04FF4B774121BC2EB97
:105950000804204F87FB03074FEA671C642202FB01
:105960001C3CFF114FF4C87202FB173700221A4E7D
:105970004FF01C0803F0030A4FF01D09D0B20128B4
:105980000BD163B1BAF1000F0BD1BCF1000F0AD1FA
:10599000002F0CBF1D251C2506E0955D04E0454643
:1059A00002E0454600E04D46A54205D8641B0130A3
:1059B000C0B201320C2AE1D10130487101340C71BE
:1059C000BDE8F00F704700BF89888888ABAAAAAAF3
:1059D000254992241F85EB51B832010010B50446C9
:1059E000044B1B68984204D00349FFF733FF014B77
:1059F0001C6010BD2025FF1F2425FF1F08B5FFF7E1
:105A0000EDFF014B987808BD2425FF1F08B5FFF76F
:105A1000E5FF014B587808BD2425FF1F08B5FFF7A7
:105A2000DDFF014B187808BD2425FF1F08B5FFF7DF
:105A3000D5FF014B187908BD2425FF1F08B5FFF7D6
:105A4000CDFF014B587908BD2425FF1F08B5FFF78E
:105A5000C5FF024B987900F2B27008BD2425FF1FE4
:105A600082B0094B1860094B1B681844084B18603A
:105A70000222084B1A70084B1B680193019A074BCE
:105A80001A6002B0704700BF2C25FF1F8C08FF1F53
:105A90003C25FF1F3025FF1F6025FF1F3825FF1FF6
:105AA00010B582B01E4B1B680193019A1D4B1B68F9
:105AB000D21AB2F57A7F13D31B4A12680132184CFE
:105AC00003F57A73216801910199501CC91AB1F547
:105AD0007A7F01D30246F3E713490A60114A136043
