:1000000000000220990100002D690000F168000045
:10001000F1680000F1680000F1680000F16800007C
:10002000F1680000F1680000F16800002D6900002F
:100030002D690000F16800002D690000E1680000F2
:100040002D6900002D6900002D6900002D69000058
:100050002D6900002D6900002D6900002D69000048
:100060002D6900002D6900002D6900002D69000038
:100070002D6900002D6900002D6900002D69000028
:100080002D6900002D6900002D6900002D69000018
:100090002D6900002D6900002D6900002D69000008
:1000A0002D6900002D6900002D6900002D690000F8
:1000B0002D6900002D6900002D69000039930000B2
:1000C0002D690000BD9A00002D69000045A00000C8
:1000D0002D690000A17500002D6900002D69000048
:1000E0002D6900002D6900002D6900002D690000B8
:1000F0002D6900002D6900002D6900002D690000A8
:100100002D6900002D6900002D6900002D69000097
:100110002D690000517800002D6900002D69000054
:100120002D6900002D6900002D6900002D69000077
:100130002D6900002D6900002D6900002D69000067
:100140002D6900002D69000095A500002D690000B3
:10015000E5AA00002D6900002D6900002D6900004E
:100160002D6900002D6900002D6900002D69000037
:100170002D6900002D6900002D6900002D69000027
:100180002D6900002D6900002D6900002D69000017
:100190002D6900002D690000584B4CF2205210B51B
:1001A0001A804DF628121A8000BF00BF06F0C2FB6D
:1001B000534B4FF030621A60524A9A60524ADA60EA
:1001C000524B4FF470021A60514B1A6812F480724D
:1001D00004D150490A604FF4A8521A604E4B1A7865
:1001E000110703D51A7842F008021A704B4B4C4C99
:1001F0004C482A221A704C4A00239918A14203D273
:10020000195899500433F8E7484B494900228B426A
:1002100002D243F8042BFAE74648474900235A58CC
:100220001A500433B3F5CC7FF9D1444B444A8021B2
:1002300003F8011B9342FBD1424B3E4A1A60424BEA
:100240008A221A70A3F5805324225A70A0221A70B1
:100250009A799207FCD59A79D406FCD43B4A9379D3
:1002600003F00C03082B394BF9D103221A714622F3
:100270005A719A799006FCD5344A9179334B4906E4
:10028000FBD5334A4FF08271116009215160202261
:100290001A709A7902F00C020C2AFAD12D4B2E4AD0
:1002A0001A602E4B2E4A1A6000225A60072243F829
:1002B000042C2C4AC3F80C2D62B606F055FE154BE3
:1002C0001B68DA0705D5284806F014FD274B284A95
:1002D0001A60284B1B785B0609D5244C244A2368F6
:1002E000934204D1204806F005FD002323600BF063
:1002F000E5FB06F025FB08F07FFCFEE70E2005403D
:1003000030800440823F04000100002B88ED00E0B3
:1003100010D0034014D0034002D0074000E0074053
:100320007813FF1F2C4701006007FF1F7813FF1F82
:100330002C2AFF1F0002FF1F0000000000E400E065
:1003400056E400E008ED00E00050064000400640A2
:100350004480044004800440C010050014E000E024
:10036000BFD4010000002020C4FDB45A1CE00340AB
:10037000A5C3945A00F00740FFFFFFFFFFFFFFFFF8
:10038000FFFFFFFFFFFFFFFFFFFFFFFFFFFFFFFF7D
:10039000FFFFFFFFFFFFFFFFFFFFFFFFFFFFFFFF6D
:1003A000FFFFFFFFFFFFFFFFFFFFFFFFFFFFFFFF5D
:1003B000FFFFFFFFFFFFFFFFFFFFFFFFFFFFFFFF4D
:1003C000FFFFFFFFFFFFFFFFFFFFFFFFFFFFFFFF3D
:1003D000FFFFFFFFFFFFFFFFFFFFFFFFFFFFFFFF2D
:1003E000FFFFFFFFFFFFFFFFFFFFFFFFFFFFFFFF1D
:1003F000FFFFFFFFFFFFFFFFFFFFFFFFFFFFFFFF0D
:10040000FFFFFFFFFFFFFFFFFFFFFFFFDEF9FFFF23
:1004100010B5054C237833B9044B13B10448AFF33E
:1004200000800123237010BD7813FF1F000000001F
:100430002447010008B5064B1BB106480649AFF337
:1004400000800648036813B1054B03B1984708BD07
:1004500000000000244701007C13FF1F7813FF1FDA
:100460000000000008B506F03FFC08BD10B50446CA
:10047000343008F0BDFA204610BD00BF38B5044640
:1004800000F134052846002108F0FEFA2846074905
:1004900008F024FB00236364A364E364002384F86E
:1004A0005030636584F85830204638BDDC2901009F
:1004B000F8B56F4803F0CCF900285FD06D4C236885
:1004C0005B6820466C4928229847204608F03CF992
:1004D000674D284603F008FB284603F0BDF9674F37
:1004E00087ED000A284603F0BBF9654E86ED000A49
:1004F000284603F0B9F9634D85ED000A23685B686F
:10050000204661490722984738680AF027FF41ECE6
:10051000100B2046022108F06FF9204608F014F96C
:1005200023685B68204659490B22984730680AF0D7
:1005300015FF41EC100B2046022108F05DF9204622
:1005400008F002F923685B68204651490F2298475A
:1005500028680AF003FF41EC100B2046022108F046
:100560004BF9204608F0F0F823685B6820464949BB
:1005700000229847204608F0E7F812E03D4C236837
:100580005B68204644492A229847204608F0DCF858
:1005900023685B682046414911229847204608F0AD
:1005A000D3F83F4803F054F9002800F08980314C1B
:1005B00023685B6820463B4928229847204608F07C
:1005C000C3F8374D284603F08FFA284603F044F964
:1005D000354F87ED000A284603F042F9334E86ED89
:1005E000000A284603F040F9314D85ED000A2368E2
:1005F0005B6820462F490922984738680AF0AEFE0A
:1006000041EC100B2046022108F0F6F8204608F0D5
:100610009BF823685B68204627490D22984730687D
:100620000AF09CFE41EC100B2046022108F0E4F891
:10063000204608F089F823685B6820461F4911228C
:10064000984728680AF08AFE41EC100B20460221E8
:1006500008F0D2F8204608F077F823685B68204657
:100660000C4900229847204608F06EF83BE000BF96
:100670001017FF1F0427FF1F94210100541AFF1FAA
:100680007416FF1FC817FF1FC0210100C8210100F9
:10069000D4210100DC290100E42101001022010025
:1006A000C013FF1F242201009413FF1F6C17FF1FAC
:1006B0007814FF1F502201005C2201006C2201000F
:1006C000454C23685B68204644492A2298472046C7
:1006D00008F03AF823685B682046414911229847A0
:1006E000204608F031F83F4803F0B2F800285FD008
:1006F000394C23685B6820463B49282298472046AE
:1007000008F022F8374D284603F0EEF9284603F0AA
:10071000A3F8364F87ED000A284603F0A1F8344EBF
:1007200086ED000A284603F09FF8324D85ED000A59
:1007300023685B68204630490922984738680AF0E8
:100740000DFE41EC100B2046022108F055F8204622
:1007500007F0FAFF23685B68204628490D22984776
:1007600030680AF0FBFD41EC100B2046022108F036
:1007700043F8204607F0E8FF23685B6820462049DD
:100780001122984728680AF0E9FD41EC100B204639
:10079000022108F031F8204607F0D6FF23685B6895
:1007A0002046184900229847204607F0CDFFF8BDA3
:1007B000094C23685B68204613492A229847204643
:1007C00007F0C2FF23685B6820460549112298475D
:1007D000204607F0B9FFF8BD0427FF1F8022010063
:1007E000102201001C14FF1FAC2201009813FF1FF0
:1007F0007017FF1F7C14FF1FD8220100E4220100A4
:10080000F4220100DC290100082301002DE9F04158
:1008100084B005464E4C23685B6820464D490F2244
:1008200098472046294607F0DBFF204607F08CFF5B
:10083000EFB249483946494AFA2302F041FC50B91F
:1008400023685B682046464907229847204607F000
:100850007BFF002079E03E4C23685B6820464149DD
:10086000062298473D4E30460CF0EAF802462368CF
:100870005B68204631469847204607F065FFDFF861
:100880000081404631460CF07DF823685B682046C5
:1008900035490A22984740460CF0D2F802462368B0
:1008A0005B68204641469847204607F04DFF0DF112
:1008B0000E030093284839463246FA2302F010FB13
:1008C00040B923685B68204625490722984720469F
:1008D00007F03AFF1E4C23685B68204623490B2231
:1008E00098472046294607F07BFF23685B6820462F
:1008F0001F49022298472046BDF80E1007F070FFEE
:1009000023685B6820461B490D229847204607F064
:100910001BFF124D28460CF093F8024623685B68D3
:10092000204629469847204607F00EFF28460BF040
:10093000A5F8114B186023685B6820460F49052213
:100940009847204607F000FF012004B0BDE8F08181
:100950000427FF1F342301001819FF1FCC17FF1FA6
:10096000442301004C2301005423010060230100B3
:100970006C230100702301004C08FF1F7823010045
:100980009C17FF1F38B50546144C23685B6820464A
:100990001349102298472046294607F021FF204698
:1009A00007F0D2FE0F48E9B202F030FA50B12368E6
:1009B0005B6820460C4903229847204607F0C4FE96
:1009C000012038BD054C23685B68204607490F228B
:1009D0009847204607F0B8FE002038BD0427FF1FC7
:1009E000802301001819FF1F9423010098230100A0
:1009F00070B506460D46214C23685B6820462049A9
:100A00000922984730460CF01BF8024623685B68C1
:100A1000204631469847204607F096FE23685B68DB
:100A2000204618491422984728460CF009F8024637
:100A300023685B68204629469847204607F084FED5
:100A4000114831462A4602F02DF9054648B9236877
:100A50005B6820460D4906229847204607F074FE41
:100A600009E0064C23685B6820460949052298473F
:100A7000204607F069FE284670BD00BF0427FF1F0F
:100A8000A8230100B42301001819FF1FCC23010083
:100A9000D423010010B5064C03E020680368DB682E
:100AA0009847206803689B6898470028F5D110BDD7
:100AB0007808FF1F70B58EB0FFF7ECFF324C20684E
:100AC00003685B6831490822984720680368DB6C3B
:100AD0000D219847322006F031FA2546322611E0E2
:100AE000304606F02BFA002406E028680368DB682D
:100AF000984701AB18550134286803689B689847EC
:100B00008442F2DB286803689B6898470028E7D195
:100B10001F4C23685B6820461E491422984701A891
:100B20000BF08EFF024623685B68204601A99847B8
:100B3000204607F009FE23685B68204616490D220F
:100B4000984723681B6820469DF814109847204654
:100B500007F0FAFD9DF81250303D23685B6820468F
:100B60000E49092298472046294607F039FE236896
:100B70005B6820460A4908229847204607F0E4FDB2
:100B800028460EB070BD00BF7808FF1FDC230100AF
:100B90000427FF1FE82301000024010010240100A6
:100BA0001C24010010B50B4C23685B6820460A49E1
:100BB00016229847204607F0C7FD1020012106F0B5
:100BC000A9F840F6B83006F0B9F91020002106F077
:100BD000A1F810BD0427FF1F2824010010B54024F0
:100BE00006F078FC013CFBD110BD00BFF0B583B02E
:100BF0000D4B1B680093009D0C4E0D4F0A4C06F0E8
:100C000059FC40B106F066FC3368B3F5FA7F38BF93
:100C1000F8540133336023680193019B5B1BB3F5E8
:100C20007A7FECD303B0F0BD6C25FF1FE018FF1FE7
:100C30008014FF1F2DE9F04786B000242246254985
:100C4000635C2C2B08BF01320A2A3CD104F1020953
:100C500004F10308271D1F4E16F8092016F8083066
:100C6000F15D009103A81C490BF0DEFC03A80AF01B
:100C700005FF8246194D2B685B68284618491822E3
:100C800098472B6834441B682846617898472B683E
:100C90001B68284616F8091098472B681B682846D9
:100CA00016F8081098472B681B682846F15D98478E
:100CB000284607F049FD2B685B6828460949112240
:100CC0009847504603E00134D22CB9D1002006B039
:100CD000BDE8F0878014FF1FA42401000427FF1F34
:100CE000AC240100C824010010B58EB0FFF7A2FFAC
:100CF000182813D1254B1B7833B9254B1868254983
:100D0000FFF776FE214B1870234B1B7833B9234B2A
:100D100018682049FFF76CFE1F4B1870204C2368A1
:100D20005B6820461F490D229847204607F00CFDBE
:100D30001D4B1B680093009A1C4B1A6001221C4B30
:100D40001A70FFF777FF431C182B17DC194A12782B
:100D50008AB1022B06D100220C490A700E490A7092
:100D600000E0012301A81449144A0BF05DFC14486B
:100D700001A9FFF73DFEFFF715FF04E00D4B1B78BF
:100D8000002BEED1F7E70EB010BD00BF9C13FF1F84
:100D90004808FF1FDC240100B017FF1F7408FF1F65
:100DA0000427FF1F342501006C25FF1FF018FF1FCB
:100DB000F418FF1F6808FF1FD82501004425010013
:100DC0009C17FF1FFFFFFFFF38B52DED028B00239F
:100DD000194633481A5C2C2A08BF01310B2950D11F
:100DE0005A1C03F10C052F49CB1A2D4C9918105D94
:100DF00001F8010C0132AA42F8D12A4D28460BF025
:100E00001FFE0246284C23685B6820462946984707
:100E1000204607F099FC28460AF02CFEB0EE408AE6
:100E2000F0EE608A23685B68204620490D229847CF
:100E30002046B0EE480AF0EE680A062107F0DCFC16
:100E4000204607F081FC51EC180B11A3D3E90023D5
:100E50000AF024F910A3D3E900230AF0D3FA0AF028
:100E60006BFD054623685B68204611490A229847B6
:100E70002046294607F0B4FC204607F065FC2846CA
:100E800003E00133D22BA5D10020BDEC028B38BD8D
:100E90000000000040F8D840000000000018F540B5
:100EA0008014FF1F0819FF1F0427FF1F742501006E
:100EB00084250100AFF300802DE9F04FABB08046F0
:100EC0005C4C23685B6820465B490F2298472046AC
:100ED00007F03AFC23685B6820465849122298477D
:100EE000FFF7A8FE0146204607F07AFCFFF76CFFEB
:100EF00005462368DFF864915B6820464946032273
:100F00009847284605F07AF90146204607F068FC24
:100F100023684B4F5B682046394601229847284694
:100F200005F064F90146204607F05AFC23685B6827
:100F30002046394601229847284605F067F90146C0
:100F4000204607F04DFC23685B6820463D4902229D
:100F50009847284605F032F90146204607F040FC44
:100F60002368394E5B68204631460122984728465F
:100F700005F02CF90146204607F032FC23685B6837
:100F80002046314601229847284605F027F90146B8
:100F9000204607F025FC204607F0D6FBFFF74AFE67
:100FA0008246284605F02AF98346284605F01EF9B0
:100FB0000C90284605F02AF90D90284605F0FEF819
:100FC0000E90284605F002F90F90284605F006F924
:100FD000CDF80090CDF804B002970C9B03930497D2
:100FE0000D9B0593194B06930E9B079308960F9B39
:100FF00009930A960B9011A81549164A53460BF00F
:1010000013FB23685B68204613490B229847404630
:101010000BF016FD024623685B6820464146984760
:10102000204607F091FB404611A9FFF7E1FC2BB0E9
:10103000BDE8F08F0427FF1F90250100A0250100C7
:10104000B8250100BC25010054380100F02501003D
:10105000C0250100E0250100F4250100B4250100B0
:1010600070B5A0B005460E46344C23685B68204638
:1010700033490A229847204607F066FB022E19D012
:10108000032E2DD0012E40D12E4B18680AF066F9A0
:10109000CDE900012C4B02932C4B03932C4B186889
:1010A0000AF05CF9CDE9040107A82A492A4A0BF0A5
:1010B000BBFA2AE0294B18680AF050F9CDE9000183
:1010C000214B0293264B0393264B18680AF046F9EE
:1010D000CDE9040107A81F49234A0BF0A5FA14E043
:1010E000224B18680AF03AF9CDE90001164B029339
:1010F0001F4B03931F4B18680AF030F9CDE9040128
:1011000007A814491C4A0BF08FFA0C4C23685B6843
:1011100020461A490B22984728460BF091FC0246BC
:1011200023685B68204629469847204607F00CFB59
:10113000284607A9FFF75CFC20B070BD0427FF1FFD
:1011400000260100541AFF1F30260100342601003A
:101150007416FF1F0C260100202601009413FF1FA8
:10116000542601006C17FF1F442601009813FF1F2F
:10117000742601007017FF1F64260100F42501008A
:1011800070B52DED028B0F2005F018FB07EE100A4D
:10119000F8EEC78A9FED378A68EE888A172005F037
:1011A0000DFB07EE100AF8EEC77A27EE888A324C5C
:1011B00023685B68204631491322984718EE900A4D
:1011C0000AF0CCF841EC100B2046022107F014FB8A
:1011D000204607F0B9FA23685B68204628491422A4
:1011E000984718EE100A0AF0B9F841EC100B2046A7
:1011F000022107F001FB204607F0A6FA214EDFEDA1
:10120000227A68EEA78ADFED217AC8EEA78AC6EDBA
:10121000008A1F4D9FED1F7A28EE078AC8EE277AB5
:10122000C5ED007A23685B6820461B490F2298476A
:1012300030680AF093F841EC100B2046022107F0C9
:10124000DBFA204607F080FA23685B6820461349E2
:101250000D22984728680AF081F841EC100B2046CF
:10126000022107F0C9FA204607F06EFABDEC028BA6
:1012700070BD00BF0D68533B0427FF1F842601008B
:10128000982601005C1AFF1F0080984400005C4310
:101290007816FF1F0000DC4388260100B0260100FD
:1012A00008B5094B1B783BB11B20002105F032FD2E
:1012B0000022054B1A7008BD0121034B19701B2039
:1012C00005F028FD08BD00BF7008FF1F38B52DEDE3
:1012D000028B3948394B196802F0B4FA50B9384CCE
:1012E00023685B682046374912229847204607F05A
:1012F0002BFAFEE7304C344B93ED000A9FED338A16
:10130000334D2046334920EE080A2A4601F060FF9B
:10131000314B93ED000A2046304920EE080A2A4658
:1013200001F056FF2E4B93ED000A20462D4920EE8A
:10133000080A2A4601F04CFF2B4D20462B492C4B26
:1013400093ED000A2A4601F043FF204629492A4B23
:1013500093ED000A2A4601F03BFF20462749284B1F
:1013600093ED000A2A4601F033FF20462549264B1B
:1013700093ED000A254A01F02BFF2046244B196803
:10138000244A02F0DBF8204601F054FF0C4C23689D
:101390005B682046204917229847204607F0D4F979
:1013A00023685B6820461D4913229847204607F0B2
:1013B000CBF9BDEC028B38BD8416FF1F4408FF1F1C
:1013C0000427FF1FC02601007416FF1F0000C8423B
:1013D000E0260100D42601006C17FF1FE42601005F
:1013E0007017FF1FF026010004270100FC260100F2
:1013F000541AFF1F0C2701009413FF1F142701002C
:101400009813FF1F1C2701005C1AFF1F2C270100E7
:101410007C08FF1F5008FF1F3027010048270100EC
:10142000F8B54FF47A74002526270126384605F0D2
:10143000C5F9B0F5FA7FC8BF0135304605F07EFD2D
:10144000013CF3D12846F8BD38B5A248A24901F0C5
:101450000DF90546A14C23685B682046A0492B2264
:1014600098472046294607F0BBF923685B68204669
:101470009C490E229847204607F066F9204607F05F
:1014800063F94FF4FA6005F059FD974804F06EFFD8
:1014900023685B6820469549172298479448FE21A7
:1014A00002F0F6FE40B923685B6820469149162297
:1014B0009847204607F048F9884C23685B68204627
:1014C0008D4914229847204607F03EF91B20012140
:1014D00005F052FC2520012105F04EFC23200121BE
:1014E00005F04AFC2620002105F046FC322005F0DC
:1014F00025FD2320012105F00DFC0F20002105F022
:101500003BFC1B20012105F005FC7C4D284602F028
:10151000AFF92846012102F0C1F9794D284602F0C1
:10152000A7F92846022102F0B9F9764D284602F0C3
:101530009FF92846032102F0B1F9664801F0A8F8A6
:1015400023685B68204670490A229847FFF768FFC6
:101550000146204607F044F9FFF762FFB0F5FA7F35
:101560000DDD23685B6820466849042298472046C1
:1015700007F0EAF82320002105F0CCFB09E0574CE6
:1015800023685B682046624905229847204607F099
:10159000DBF8FFF745FFB0F5FA7F32DA23200121AF
:1015A00005F0B8FB4D4C23685B68204659490F2273
:1015B0009847204607F0C8F82520012105F0AAFB2E
:1015C0004FF4FA6005F0BAFC2520002105F0A2FBDB
:1015D00041F2883005F0B2FC2520012105F09AFB8C
:1015E0004FF4FA6005F0AAFC2320002105F092FBDD
:1015F00023685B682046484904229847204607F044
:10160000A3F8344801F044F8444C206803689B690F
:101610004FF4964198474248216802F013F948B9BF
:101620002E4C23685B6820463E491222984720468C
:1016300007F08AF83C483D4B196801F0A1F948B918
:10164000264C23685B68204636491222984720467C
:1016500007F07AF8344801F075F8354D28701F4CC2
:1016600023685B68204633490A229847204607F0E2
:101670006BF823685B6820462F49062298472B7831
:10168000013B052B00F28180DFE803F003195E695E
:10169000740E124C23685B6820462849092298473B
:1016A000204607F051F87AE00C4C23685B6820462E
:1016B000234909229847204607F046F86FE0074C77
:1016C00023685B6820461F490D229847204607F093
:1016D0003BF864E0781AFF1FE09304000427FF1F23
:1016E0005C2701008827010065040000982701009D
:1016F000B022FF1FB0270100C82701001017FF1FED
:10170000C013FF1F1C14FF1FE0270100EC2701007E
:10171000F4270100FC2701000C2801004408FF1FEA
:101720008416FF1FC02601001819FF1F7808FF1F2D
:101730009817FF1F14280100202801002828010005
:1017400034280100402801001D4C23685B682046B6
:101750001C490D229847204606F0F6FF1FE0184C62
:1017600023685B682046184912229847204606F0F5
:10177000EBFF14E0124C23685B68204613491222E9
:101780009847204606F0E0FF09E00D4C23685B68AF
:1017900020460F4903229847204606F0D5FF102027
:1017A000012105F0E9FA1020002105F0B3FA43F217
:1017B000D40005F053FC074800F06AFF38BD00BFB5
:1017C0000427FF1F50280100602801007428010031
:1017D00088280100781AFF1F10B52320012105F089
:1017E00099FA1B4B1B78CBB12520002105F092FA0A
:1017F00041F2883005F0A2FB2520012105F08AFA8C
:101800000022134B1A70134C23685B682046124960
:101810000F229847204606F097FF10BD2520002193
:1018200005F078FA41F2883005F088FB2520012187
:1018300005F070FA0122064B1A70064C23685B68AB
:10184000204606490E229847204606F07DFF10BD2F
:101850006908FF1F0427FF1F8C2801009C28010036
:1018600030B583B004F07CFD0F4D00900F4B019319
:1018700028460F490F4A104B0AF0D6FE0F4C23683A
:101880005B6820460E490D22984728460BF0D8F891
:10189000024623685B68204629469847204606F0A2
:1018A00053FF03B030BD00BFF016FF1F3029010009
:1018B00024290100B417FF1F441AFF1F0427FF1F2C
:1018C0003829010000B58BB004F040FD092808DC80
:1018D00004F03CFD03463C483C4930220AF0A4FE9B
:1018E00006E004F033FD0246374839490AF09CFE11
:1018F00004F022FD092808DC04F01EFD03463548EB
:10190000324930220AF090FE06E004F015FD02464E
:1019100030482F490AF088FE04F0F0FC092808DC62
:1019200004F0ECFC03462C48284930220AF07CFEE7
:1019300006E004F0E3FC0246274825490AF074FE5D
:1019400004F0E6FC092808DC04F0E2FC0346234826
:101950001E4930220AF068FE06E004F0D9FC024677
:101960001E481B490AF060FE04F0DCFC092808DC74
:1019700004F0D8FC03461A48144930220AF054FEF9
:1019800006E004F0CFFC0246154811490AF04CFE6F
:1019900004F0E6FC0246134B0B49009101930D49FC
:1019A0000291114903910C490491104905910B488A
:1019B000069007910A4908910D480E490AF034FE35
:1019C0000BB05DF804FB00BFB417FF1F48290100EE
:1019D00050290100441AFF1F4C1AFF1FCC18FF1F8B
:1019E000D418FF1F6C290100783801005438010019
:1019F000A013FF1F5429010070B588B02E4B1B683F
:101A00001BB9FFF75FFFFFF72BFF2C4B93ED000A8D
:101A1000032002212A4A04F0EFFF2A4B93ED000A2B
:101A200003200221284A04F0E7FF284B93ED000A27
:101A300003200221264A04F0DFFF264B93ED000A23
:101A400003200221244A04F0D7FF24482449254BCF
:101A50001A680AF0E9FD68462349244A132302F074
:101A6000C5FC234C9DF804302371029BA3609DF8B4
:101A70000C30237308AB53F8135D58689968C4F8A9
:101A80000D50C4F81100C4F815101B7B6376079B3A
:101A9000E361684602F0BEFB204602F0EFFB68BB44
:101AA000144C23685B68204613492022984720463F
:101AB00006F04AFE03E100BFDC18FF1F541AFF1FA7
:101AC0006C1AFF1F9413FF1F0417FF1F9813FF1FAB
:101AD000BC17FF1F5C1AFF1FE418FF1F601AFF1FCF
:101AE000502901007417FF1FB022FF1FF016FF1FBF
:101AF0007817FF1F0427FF1F70290100714C23680E
:101B00005B68204670490B229847204606F01CFE71
:101B100023685B6820466D490B2298476C4D284628
:101B20000AF08EFF024623685B68204629469847E4
:101B3000204606F009FE23685B68204665490B22B3
:101B40009847654D2046296806F04AFE204606F073
:101B5000FBFD2B68002B3BD101222A6023685B68C8
:101B600020465E490E229847204606F0EDFD236888
:101B70005B4D5B682046294600229847204606F0C8
:101B8000E3FD584C23685B68204657490D2298476F
:101B90002046564B196806F023FE23685B682046F2
:101BA000534904229847204606F0CEFD23685B681F
:101BB0002046294600229847204606F0C5FD2368A6
:101BC0005B6820464B4979229847204606F0BCFDC9
:101BD0000A2005F0B3F9FFF775FE474D28460AF0D5
:101BE0002FFF02463F4C23685B68204629469847F2
:101BF0002368424D5B682046294601229847404EA3
:101C000030460AF01DFF024623685B6820463146D5
:101C1000984723685B682046294601229847394E39
:101C200030460AF00DFF024623685B6820463146C5
:101C3000984723685B682046294601229847324E20
:101C400030460AF0FDFE024623685B6820463146B6
:101C5000984723685B6820462946012298472B4E07
:101C600030460AF0EDFE024623685B6820463146A6
:101C7000984723685B682046294601229847244DEF
:101C800028460AF0DDFE024623685B6820462946A6
:101C9000984723685B6820461E49012298472046E2
:101CA00006F052FD204602F0DDFA064C23685B6820
:101CB0002046194905229847204606F045FD08B000
:101CC00070BD00BF0427FF1F94290100A029010057
:101CD000F016FF1FAC290100DC18FF1FB829010016
:101CE000DC2901007817FF1FC82901007C08FF1FAD
:101CF000D8290100E0290100A013FF1FC036010010
:101D00006C1AFF1F0417FF1FBC17FF1F601AFF1F6D
:101D1000E418FF1F183C01005C2A010038B5272099
:101D200004F04CFD05460A4B18600A4C23685B68BA
:101D3000204609490C2298472046294606F050FDC6
:101D4000204606F001FD632DCCBF0020012038BDE8
:101D50007417FF1F0427FF1F642A01002DE9F04FAD
:101D6000BBB0FEF7A7FE5FFA80FA9E4C23685B6863
:101D700020469D490D2298474FFA8AFA204651463F
:101D800006F02EFD204606F0DFFCBAF1000F40F30E
:101D9000A88123685B68204694491622984720460C
:101DA00006F0D2FCBAF1000F3FDD0026904F254629
:101DB000DFF89482DFF8949206F11E0B70B2FEF702
:101DC00025FD3860741C2B685B6828464146092253
:101DD00098472846396806F003FD284606F0B4FC0B
:101DE0003B681BB95C4501D02646E7E7601E40B260
:101DF000FEF7C8FD3860D9F800300693069A7D4B8F
:101E00001B68D21A7C4B9A420CD9002460B2FEF7B0
:101E1000B9FD01341E2CF9D1D9F800300793079A87
:101E2000744B1A600236B245C6DC744B1B68012B3A
:101E300024D14FF0FF32714B1A60714B186809F0D2
:101E40008DFACDE900016F4B02936F4B186809F0D2
:101E500085FACDE9040108A86C496D4A0AF0E4FB53
:101E60006C4808A9FEF7C4FD5E4C23685B682046F9
:101E7000694917229847204606F066FC5F4B1B68AD
:101E8000022B0DD14FF0FF325C4B1A60FFF746FF7B
:101E900010B1FEF729FF03E05E486049FEF7A8FD98
:101EA000564B1B68032B12D14E4C23685B682046AF
:101EB0005B491A229847204606F046FC5548012106
:101EC000FFF7CEF84FF0FF324C4B1A602BE0042B9B
:101ED00012D1444C23685B68204651491A22984726
:101EE000204606F031FC4B480221FFF7B9F84FF0CD
:101EF000FF32424B1A602DE0404B1B68052B12D17C
:101F0000384C23685B68204645491A22984720468A
:101F100006F01AFC3F480321FFF7A2F84FF0FF320A
:101F2000364B1A6039E0354B1B68062B12D12D4C0D
:101F300023685B6820463A491A229847204606F0F3
:101F400003FC34483749FEF753FD4FF0FF322B4B6B
:101F50001A607DE0294B1B68072B1ED1214C23689A
:101F60005B682046304917229847204606F0ECFB74
:101F70002E4B1B7833B1FFF793F926482C49FEF717
:101F800037FD05E0FFF78CF922482A49FEF730FDBE
:101F90004FF0FF32194B1A607FE0184B1B68082B7B
:101FA00056D1104C23685B6820462349112298477C
:101FB000204606F0C9FB214B1B783BB100221F4B8A
:101FC0001A7014481E49FEF713FD06E001221B4B50
:101FD0001A7010481B49FEF70BFD4FF0FF32074BFC
:101FE0001A6088E00427FF1F742A0100842A010078
:101FF0000019FF1F7C16FF1FE09304004C08FF1F11
:102000005C1AFF1FC82A01007816FF1FA82A0100CA
:10201000B42A01009C17FF1FDC2A0100F42A0100EA
:10202000182B0100342B0100482B01007008FF1F02
:10203000602B0100782B0100902B0100581AFF1F24
:10204000A42B0100B42B01009C2A01006C25FF1F6A
:102050002A4B1B68092B20D1294C23685B6820463A
:10206000284913229847204606F06EFB264B1B7822
:102070003BB10022244B1A7024482549FEF7B8FCD6
:1020800006E00122204B1A7020482249FEF7B0FCDE
:102090004FF0FF32194B1A602DE0184B1B68002BD4
:1020A00029D108A81C495C2204F0E0F91B4B1B78DD
:1020B00033B108A81A4902461A4B0AF0B5FA05E0EE
:1020C00008A817490246184B0AF0AEFA08A81449A6
:1020D0000246164B0AF0A8FA0C4808A9FEF788FC3D
:1020E00009E0074C23685B68204611490A2298479B
:1020F000204606F029FB3BB0BDE8F08F4C08FF1FDF
:102100000427FF1FC42B01006808FF1F9C17FF1F37
:10211000D82B0100F42B0100102C01007008FF1FC8
:10212000043C01006C2C0100742C01007C2C01008B
:10213000882C010070B58EB0924B1B78002B43D0D9
:10214000914C23685B682046904924229847904B25
:102150001B680193019920460A22002306F004FB24
:10216000204606F0F1FA8B4C894E8B4D204600F04C
:102170008FFA05F09FF940B933680293029A2B68F1
:10218000D31A49F63F429342F0D9814D2B6803930D
:10219000039A814B1A607C4C23685B6820467F4918
:1021A000252298472B680493049920460A2200238D
:1021B00006F0DAFA204606F0C7FAFEF717FD05F03A
:1021C00079F90028F9DC03E041F2883004F0B6FE2A
:1021D000FFF7C4FD6F4800F05BFAFEF769F9FEF700
:1021E000CFFF6B4B1B68059305996D4B1A686D4BC0
:1021F0001B684EF6602000FB03F3891A99420CD944
:10220000FFF764F8624B1B680693069A644B1A60EA
:10221000FEF7E4FCFEF73EFC18E05D490968079113
:102220000799594C521A13445F4AA2FB03012046F6
:1022300089090A22002306F097FA23685B68204682
:102240005A4915229847204606F07EFA504B1B68E3
:102250000893089A564B1B68D21A564B1B684EF6C9
:10226000602101FB03F39A4240D9474C2368524E48
:102270005B68204631460A229847204606F064FAF9
:1022800023684E4D5B682046294606229847204623
:1022900006F05AFA23685B68204631460A229847BE
:1022A000204606F051FA23685B682046294606223C
:1022B0009847204606F048FA23685B682046314676
:1022C0000A229847204606F03FFA23685B682046BA
:1022D000294606229847204606F036FAFFF78CFB7F
:1022E0002B4B1B680993099A314B1A60344B1B78AE
:1022F00053B1254C23685B682046324943229847F6
:10230000204606F021FA09E01F4C23685B6820464E
:102310002D4943229847204606F016FAFFF7FEFCA7
:10232000002800F08280184C23685B68204627490B
:1023300016229847204606F007FA214B1B78002BFF
:102340007DD1134B1B680A930A9A214B1B68D21A42
:10235000204B1B684EF6602101FB03F39A423DD9E6
:1023600023685B6820461C490F229847204606F0E8
:10237000EBF9074B1B680B930B9A154B1A60FEF792
:10238000B3FC5CE0581AFF1F0427FF1F942C0100C8
:102390006C25FF1F781AFF1F8016FF1FBC2C010041
:1023A0000419FF1F6C08FF1FD34D6210E42C0100BD
:1023B000F818FF1F8008FF1FFC2C0100082D0100EA
:1023C0006808FF1F102D0100542D0100982D0100F9
:1023D000FC18FF1F4008FF1FB02D0100424C23686E
:1023E0005B682046414911229847414B1A68414B8E
:1023F0001968414B1B680C930C9BCB1A4EF660215D
:1024000001FB02313D4BA3FB0121204689090A2231
:10241000002306F0A9F923685B6820463849112299
:102420009847204606F090F909E02F4C23685B6836
:102430002046344919229847204606F085F92A4C4F
:1024400023685B68204630492C2298472F4D204650
:10245000296806F0C5F923685B6820462C490B22E1
:102460009847204606F070F92A68002329498B54C2
:102470002B6023685B68204627490F229847FEF7A8
:10248000CFFF0146204606F0ABF9204606F05CF986
:10249000FEF7C6FFB0F5FA7F01DAFFF79DF9164B9C
:1024A0001B680D930D9A1D4B1B68D21A1C4B9A4248
:1024B00014D91C4B1B785BB910E005F0DDFD2868D2
:1024C0000368DB689847013CF7D1FEF787FB08E01B
:1024D0001548FEF7F1FC0022124B1A704024134DF0
:1024E000EBE70EB070BD00BF0427FF1FC02D010039
:1024F0004008FF1FFC18FF1F6C25FF1FD34D621003
:10250000D42D0100E82D0100042E0100E018FF1F6A
:10251000342E01008014FF1F402E0100F018FF1F11
:10252000A0860100F418FF1F9C17FF1F7808FF1FEB
:10253000F0B587B02748042100F0DEF8264C236868
:102540000593059A254B1A6023680493049A244B3B
:102550001A6024482449254A00F022FE244F3846B8
:10256000FDF78CFF234E244D384631462A4609F0AC
:102570007BFA224F3846FDF781FF384631462A461E
:1025800009F072FA1E4F3846FDF778FF384631469B
:102590002A4609F069FA1B4E304601F02DFE3046FE
:1025A00019492A4609F060FA23680393039A174BE6
:1025B0001A6023680293029A154B1A6023680193EC
:1025C000019A144B1A6023680093009A124B1A6008
:1025D00007B0F0BD1819FF1F6C25FF1F7C16FF1FE9
:1025E0000419FF1F8416FF1F502E0100742E0100D6
:1025F0001017FF1F6D0400003C08FF1FC013FF1FD2
:102600001C14FF1F7817FF1F15420000F818FF1F4A
:10261000F018FF1FFC18FF1F8016FF1F0022014B40
:102620001A607047781AFF1F72B60F4B4CF2205297
:102630001A804DF628121A8000BF00BF40F0100229
:1026400092B20E3B1A800A0C04331A8089B202330C
:102650001980002210331A8062B64FF4807300BFD5
:1026600000BF013BFBD170470E20054038B5054641
:102670000C460329D8BF4FF4FA540368A34204D090
:1026800001202146FFF7D0FF2C60204638BD00BF57
:1026900072B6044B4AF202621A804BF280421A80F0
:1026A00062B670470C20054008B5D0F828010368D1
:1026B0009B68984708BD00BF08B5D0F8280103689B
:1026C0001B68984708BD00BF08B5D0F8280103680B
:1026D000DB68984708BD00BF08B5D0F8280103683B
:1026E0001B69984708BD00BF08B5D0F828010368EA
:1026F0005B69984708BD00BF10B4002202714FF417
:102700007A74846002730B4C046041730A49C0F808
:102710001011C0F81421C0F81821C0F8282180F841
:102720001C21064AC0F82021054AC0F824215DF882
:10273000044B7047B02E0100902F01009C2F010028
:1027400034320100807B7047F8B50446012500262D
:102750002F4604E02368DB68204698473546236807
:102760009B68204698470028F4D1384604F0E6FBE1
:102770006B1C9BB2272D01D81D46F0E7F8BD00BFAA
:102780002DE9F04105460E46884600270DE0D5F8B4
:10279000280103689B68984768B1D5F82801036849
:1027A000DB689847EB19D8730137BCB2474506D0B0
:1027B000FE2FECD103E0A64201D0FD2CE7D9254441
:1027C0000023EB732046BDE8F08100BF2DE9F04106
:1027D000044617464E1EB6B219B300254FF0010845
:1027E0000FE0D4F828010368DB689847C0B20D28D1
:1027F00007D00A2801D125B1A7B16319D8730135D3
:10280000ADB2D4F8280103689B6898470028E8D146
:1028100046B1404604F092FB013EB6B2FD2DF0D920
:1028200000E000252C440023E373E8B2BDE8F0810A
:102830002DE9F04106460D469046FFF785FF1E4CF8
:1028400023685B6820461D490622984728460AF0FF
:10285000F7F8024623685B682046294698472046D9
:1028600005F072FFD6F8287128460AF0E9F802460A
:102870003B685B68384629469847384605F064FF50
:10288000304641460022FFF7A1FF054623685B68FA
:1028900020460B49062298470F3630460AF0D0F8FA
:1028A000024623685B68204631469847204605F07B
:1028B0004BFF2846BDE8F0810427FF1FA42F01002D
:1028C000D02F01002DE9F04106460D469046FFF756
:1028D0003BFF1E4C23685B6820461D490622984733
:1028E00028460AF0ADF8024623685B682046294670
:1028F0009847204605F028FFD6F8287128460AF0A8
:102900009FF802463B685B68384629469847384638
:1029100005F01AFF304641460022FFF757FF0546F3
:1029200023685B6820460B49062298470F363046DD
:102930000AF086F8024623685B68204631469847CD
:10294000204605F001FF2846BDE8F0810427FF1F5F
:10295000A42F0100D02F010038B5054614461A46B1
:10296000FFF7B0FF48B105F10F00214609F0FCFE6A
:10297000D0F1010038BF002038BD002038BD00BFB5
:102980002DE9F8430446C0F82811407B012104F0EA
:10299000F3F9607B012104F0BDF90A2004F0CEFABE
:1029A000607B002104F0B6F9642004F0C7FA607B74
:1029B000012104F0AFF9A04D2B685B6828469F49C0
:1029C00020229847284605F0BFFE41F658379C4D17
:1029D0004FF4FA7604E0D4F828010368DB689847DE
:1029E000D4F8280103689B6898470028F3D1204653
:1029F0002946D4F824213346FFF7AEFF28B11BE067
:102A0000D4F828010368DB689847D4F828010368E4
:102A10009B6898470028F3D1204629462A4633462A
:102A2000FFF79AFF40B9304604F088FAA7F5FA7725
:102A3000BFB2002FD4D102E03FB2002F2BDC7E4D7D
:102A40002B685B6828467F4931229847284605F065
:102A50007BFE7B4D20462946D4F824214FF4FA739F
:102A6000FFF77AFF642004F069FA20462946D4F87B
:102A700024214FF4FA73FFF76FFF642004F05EFA2D
:102A800020462946D4F824214FF4FA73FFF764FF57
:102A9000642004F053FA6C4D20462946D4F82421D2
:102AA0004FF4FA73FFF758FF642004F047FA20460A
:102AB0002946D4F824214FF4FA73FFF74DFF074657
:102AC000002800F0B58020466049D4F824214FF456
:102AD000FA73FFF741FF642004F030FA2046FFF755
:102AE00033FE554D2B685B682846594906229847A6
:102AF0002B68DFF880815B682846414603229847AF
:102B0000284605F021FED4F8286133685B6830461A
:102B1000414603229847304605F016FE20464FF402
:102B2000FA710122FFF752FE2B685B68284649497B
:102B30000622984704F10F06304609F081FF02464D
:102B40002B685B68284631469847284605F0FCFD0F
:102B5000304641490AF084F910B10323A3735FE0C2
:102B600030463E490AF07CF910B10223A37357E0C6
:102B700030463B490AF074F910B10123A37312E007
:102B8000304638490AF06CF910B10423A37347E0CA
:102B9000304635490AF064F910B10523A3733FE0CC
:102BA000A37B012B3CD1244D2B685B682846284928
:102BB000062298472B68DFF8C0905B682846494694
:102BC00006229847284605F0BFFDD4F82881D8F89A
:102BD00000305B684046494606229847404605F06B
:102BE000B3FD20464FF4FA710122FFF7EFFD2B6889
:102BF0005B682846174906229847304609F020FFAF
:102C000002462B685B68284631469847284605F0FF
:102C10009BFD304615490AF023F908B10623A3733A
:102C200020461349D4F824214FF4FA73FFF794FE99
:102C30003846BDE8F88300BF0427FF1FB830010005
:102C4000DC300100E0300100143101001C310100D2
:102C5000A42F0100D02F01002C31010038310100D8
:102C60004431010050310100603101007831010030
:102C700080310100283101007031010038B505466E
:102C800014461A46FFF7D4FD48B105F10F0021465E
:102C900009F06AFDD0F1010038BF002038BD0020E6
:102CA00038BD00BFF0B589B004460E461546504900
:102CB000D0F824214FF4FA73FFF74EFE03460028A4
:102CC00000F092806B464B4A07CA03C31A80002368
:102CD000ADF80A30ADF80C30ADF80E30ADF810306C
:102CE000ADF81230ADF81430ADF81630ADF818303C
:102CF000ADF81A30ADF81C300DF109003146132241
:102D000009F028FF684609F09BFE08AB184422230F
:102D100000F8203C20466946374A4FF4FA73FFF723
:102D2000ADFF034600285FD0344E33685B68304601
:102D3000314902229847284609F082FE024633684C
:102D40005B68304629469847304605F0FDFCD4F8CC
:102D50002871284609F074FE02463B685B683846D5
:102D600029469847384605F0EFFCD4F8280105F0CD
:102D7000EBFCD4F8280103681B681A2198473368D4
:102D80005B6830461E4902229847304605F0DCFC5D
:102D9000A37B043BDBB2012B09D82046C8210022CB
:102DA000FFF714FD2046C8210022FFF70FFD204643
:102DB00042F210710022FFF709FD04F10F052846C9
:102DC00010490AF04DF870B120464FF47A71002294
:102DD000FFF7FCFC28460C4909F0C6FCD0F10103C2
:102DE00038BF002300E00023184609B0F0BD00BF43
:102DF00080320100D82E0100A82F01000427FF1FF8
:102E00008C320100903201003432010030B585B0BF
:102E100004460D461A49D0F824214FF4FA73FFF7FF
:102E20009BFD034640B3174A01AB07CA83E807007E
:102E3000154AA2FB0512520902F130018DF80C105F
:102E4000642101FB1255EDB2104AA2FB0512D20813
:102E500002F130018DF80D1002EB8202A5EB420564
:102E600030358DF80E5020461946D4F824214FF401
:102E7000FA63FFF703FF0346184605B030BD00BFF5
:102E800080320100983201001F85EB51CDCCCCCCB3
:102E90002DE9F0410D4690461F469DF818600F3011
:102EA00009F0DEFF0446A8B1284609F0C9FD204418
:102EB0004EB10024394609F0DDFB70B10130013418
:102EC000E4B2B442F6D108F0D9FDA8F80000012020
:102ED000BDE8F0810020BDE8F0810020BDE8F08170
:102EE0002DE9F04F85B004460E46174698464649F0
:102EF000D0F824214FF4FA73FFF72EFD0546002881
:102F00007DD020464149D4F824214FF4FA73FFF7CD
:102F100023FD0546002872D04FF000090DF1100A7C
:102F20002AF8029D3A4D2B68DFF8ECB05B68284622
:102F3000594608229847284631460A224B4605F052
:102F400013FC284605F000FCD4F8280103685B68F0
:102F5000594608229847D4F828B1584631460A22E3
:102F60004B4605F001FC584605F0EEFB20464FF4B9
:102F70007A714A46FFF72AFC04F10F06304609F041
:102F80005FFD02462B685B68284631469847284615
:102F900005F0DAFB0B23009320461E4952462C23F2
:102FA000FFF776FF054618B90E9AA2F8009026E0C2
:102FB0002046BDF80E10FFF7E3FB2046FFF7C4FBE9
:102FC000304609F03DFD404538BF80461FFA88F481
:102FD00038463146224609F0BDFD00233B553046B8
:102FE00009F02EFD02460A4C23685B6820463146F4
:102FF0009847204605F0A8FB0E9BA3F800802846C2
:1030000005B0BDE8F08F00BF80320100E034010060
:103010000427FF1FF8340100EC3401002DE9F84FBC
:103020000D4690461F469DF828609DF82C900F3065
:1030300009F016FF0446002836D0284609F000FDA6
:103040000444B9F1000F0AD000252046314609F0AA
:1030500011FB60B3441C0135EDB24D45F5D1002F95
:103060002BDD4FF00009CA464D460EE014F80B3038
:10307000B34211D0222B03D06A1C08F80530D5B218
:10308000AA4609F10109BD4217DA5FFA89FB204619
:1030900009F0D6FC8345E9D3BA450BDA002308F8DA
:1030A00005300120BDE8F88F0020BDE8F88F002032
:1030B000BDE8F88F0120BDE8F88F0120BDE8F88F4A
:1030C0002DE9F04383B004460E4690461F462F4933
:1030D000D0F824214FF4FA73FFF73EFC0546002890
:1030E00050D020462A49D4F824214FF4FA73FFF730
:1030F00033FC0546002845D0264D2B68DFF89C9010
:103100005B682846494608229847284631460A22E5
:10311000002305F029FB284605F016FBD4F828010A
:1031200003685B68494608229847D4F828914846C6
:1031300031460A22002305F017FB484605F004FB40
:1031400020464FF47A710022FFF740FB04F10F068E
:10315000304609F075FC02462B685B68284631460C
:103160009847284605F0F0FA2C2300930123019399
:103170002046094942463B46FFF750FF0546204698
:10318000FFF7E2FA284603B0BDE8F0838032010081
:10319000E03401000427FF1FF8340100EC34010083
:1031A00038B50446012303708261C161064B036197
:1031B000002580F86050502008F0A8FCA066034B62
:1031C0001D70204638BD00BFB43701007C1AFF1FB8
:1031D00070B584B00C461546124B1B6873B9124E7D
:1031E00010EE100A08F0BAF8CDE900010295304659
:1031F0000E493246234609F017FA0DE00A4E10EE4A
:10320000100A08F0ABF8CDE90001029530460849F4
:103210003246234609F008FA024B1A6801321A6056
:1032200004B070BD4C22FF1F7C1AFF1FE437010061
:10323000F837010010B5084C23685B682046074941
:103240000D229847204605F07FFA0023044A1370A8
:10325000044A136010BD00BF0427FF1F343801006B
:103260007C1AFF1F4C22FF1F2DE9F041FEB00446DF
:103270004F1EBFB209B3002501AE4FF001080CE0AC
:10328000606E0368DB689847C0B20D2805D00A2835
:1032900000D115B170550135ADB2606E03689B6801
:1032A00098470028ECD14FB1404603F047FE013F5C
:1032B000BFB2B5F5FA7FF0D300E00025002201ABE4
:1032C0005A552378D3B1164D2B685B6828461549AB
:1032D00011229847284605F037FA01A809F0B0FBFB
:1032E00002462B685B68284601A99847284605F0E6
:1032F0002BFA03E0606E0368DB689847606E036832
:103300009B6898470028F5D101A8074909F0A8FD56
:1033100010B1204600F072FA01A87EB0BDE8F0813D
:103320000427FF1F443801005838010070B582B0EF
:103330000446084609F084FB024601A86C4909F0DE
:1033400073F9656E2B685B6828466A490A229847BC
:10335000284605F0F9F920464FF47A61FFF784FF1B
:10336000654909F07DFD70B923784BB1634D2B6839
:103370005B682846624915229847284605F0E4F91B
:10338000002384F86030656E2B685B6828465D49D1
:103390000C229847284605F0D7F920464FF47A6169
:1033A000FFF762FF584909F05BFD70B923784BB114
:1033B000524D2B685B682846544917229847284687
:1033C00005F0C2F9002384F86030656E2B685B68F5
:1033D00028464F490B229847284605F0B5F9204664
:1033E0004FF47A61FFF740FF4A4909F039FD70B99F
:1033F00023784BB1414D2B685B682846464914221F
:103400009847284605F0A0F9002384F86030606EE4
:1034100003685B68414913229847666EA569284690
:1034200009F00EFB024633685B6830462946984730
:10343000606E03685B683A4903229847606E0368D0
:103440005B68384904229847656E2B685B6828469C
:10345000354901229847284605F076F920464FF471
:103460007A61FFF701FF314909F0FAFC70B923785E
:103470004BB1224D2B685B6828462D491622984790
:10348000284605F061F9002384F86030606E036817
:103490005B6828490B229847656E01A809F0D0FAAD
:1034A00002462B685B68284601A99847284605F024
:1034B0004BF920464FF47A61FFF7D6FE3E2109F022
:1034C000D9F878B923784BB10C4D2B685B68284646
:1034D000194915229847284605F036F9002084F846
:1034E000600003E0002384F86030012002B070BD6A
:1034F00050390100E8310100F43101000427FF1FB9
:1035000054390100443201006C3901008039010056
:10351000FC310100343201009839010018320100F9
:1035200028320100B0390100B82F01002C3201000F
:10353000B8390100C02F0100D03901002DE9F04158
:10354000ADF5815D0546884617468C4C09A88C4927
:10355000226809F069F823680133236000248DF89C
:10356000804010AE874B009330468749874A4346D8
:1035700009F05AF8864B0093864B01930296864BCE
:103580000393864B04930597854B069320A88549A2
:10359000854A09AB09F048F89DA88449BF2202F08A
:1035A00065FF0DF1600E7646814F0FCF0FC697E88D
:1035B000070003C626F8022B120C32707D4B0093D5
:1035C000CDF804E00DF58D607B499DAA20AB09F094
:1035D0002BF87A4E33685B68304679490D2298475C
:1035E0000DF58D6009F02CFA024633685B683046B1
:1035F0000DF58D619847304605F0A6F80134284650
:103600000DF58D61FFF792FE002840F0AF80052C8C
:10361000F4D16A4C23685B6820466A4920229847A7
:10362000204605F091F8654C23685B6820466649A2
:103630000B2298470DF58D6009F002FA02462368C7
:103640005B6820460DF58D619847204605F07CF8B3
:1036500023685B6820465D490322984723685B68BE
:1036600020465B491322984723685B6820465949E6
:103670000122984723685B682046574904229847EF
:10368000204605F061F86C6E0DF58D6009F0D8F9F3
:10369000024623685B6820460DF58D61984700233C
:1036A0008DF8683428464FF47A61FFF7DDFD4B4909
:1036B00009F0D6FB78B92B784BB1404C23685B6896
:1036C0002046474918229847204605F03DF800203B
:1036D00085F860004EE06C6E23685B6820464149C7
:1036E0000B229847204605F02FF828464FF47A61C0
:1036F000FFF7BAFD3C4909F0B3FB78B92B784BB121
:103700002E4C23685B68204638491622984720468D
:1037100005F01AF8002085F860002BE06C6E236835
:103720005B68204632490A229847204605F00CF88B
:1037300028464FF47A61FFF797FD2E4909F090FB78
:1037400078B92B784BB11D4C23685B6820462A4919
:1037500015229847204604F0F7FF002085F8600006
:1037600008E0002385F86030012003E0052C7FF499
:103770005AAF4EE70DF5815DBDE8F0818408FF1F6B
:1037800050290100B03A0100983A0100A03A010026
:10379000C83A0100D83A0100E43A0100F03A0100C9
:1037A000083B010058290100B83A0100243B010000
:1037B000E43B01007C1AFF1F003C01000427FF1FAF
:1037C0000C3C01001C3C0100403C01004C3C010051
:1037D000742E010054380100B0390100D82F0100C7
:1037E000503C010038320100743A0100803A010077
:1037F000E8310100F43101005439010010B50446EC
:103800000920012103F0B8FA0920002103F082FA0F
:103810004FF47A7003F092FB0920012103F07AFA49
:103820004FF4FA6003F08AFB0920002103F072FADA
:1038300040F6B83003F082FB20464FF47A61FFF780
:1038400013FD10BD08B54166FFF7D8FF012008BD84
:1038500090F85000704700BF90ED110A704700BF0C
:1038600090ED120A704700BF90ED130A704700BF39
:10387000002380F85830704710B5054C20461E21B3
:1038800000F03AFB20460349034A08F0EDF810BD6A
:103890005022FF1F193F00003C08FF1F2DE9F04197
:1038A00088B0054688466965322003F047FB4D48DD
:1038B00000F0C6FBC82003F041FB4B4C23685B685B
:1038C00020464A4919229847204604F03DFF05F159
:1038D000340404A841460A2205F012F9684604A9F6
:1038E00005F0F0F86846424905F052F901462046D5
:1038F00005F0DEF8684605F07BF804A805F078F8D6
:1039000095F858303BB1384E3046214604F0F6FE6B
:10391000304604F019FF3348214600F059FB4FF4BC
:10392000FA6003F00BFB00262E4C05270CE0204626
:1039300000F074FAC0B20A2806D00D2804D0A855A9
:10394000384603F0FBFA0136204600F03BFA002827
:10395000EDD1284609F074F80246234C23685B68D1
:10396000204629469847204604F0EEFE2B78303B4F
:1039700043451BD1EB784A2B18D123685B6820465E
:103980001C4907229847204604F0DEFE95F858307F
:1039900043B123685B68204617492E22984720468A
:1039A00004F0D2FE012385F8503015E00E4C236858
:1039B0005B682046114906229847204604F0C4FE61
:1039C00023685B6820460E491F229847204604F072
:1039D000BBFE002385F85030024800F013FB08B00E
:1039E000BDE8F0815022FF1F0427FF1F6C3C01003F
:1039F000883C0100903C0100983C0100CC23010070
:103A0000C83C0100F0B589B0064600F1340404A8B2
:103A1000716D0A2205F074F8684604A905F052F8A1
:103A200068462D4905F0B4F80146204605F040F8F7
:103A3000684604F0DDFF04A804F0DAFF96F8583079
:103A40003BB1264D2846214604F058FE284604F096
:103A50007BFE2348214600F0BBFA1E2003F06EFADD
:103A600000251F4C05270CE0204600F0D7F9C0B216
:103A70000A2806D00D2804D07055384603F05EFAA7
:103A80000135204600F09EF90028EDD196F8583017
:103A900063B1304608F0D4FF0246104C23685B68DF
:103AA000204631469847204604F04EFE0C4800F070
:103AB000A9FA0A4C23685B6820460A4919229847EC
:103AC000204604F041FE4FF4FA6003F037FA002379
:103AD000337009B0F0BD00BFE83C01000427FF1FB0
:103AE0005022FF1FEC3C01002DE9F04192B0054649
:103AF000A54B43648364C364FFF784FF05F134047A
:103B00000EA8696D0A2204F0FBFF0AA80EA904F0B2
:103B1000D9FF0AA89D4905F03BF80146204604F06C
:103B2000C7FF0AA804F064FF0EA804F061FF95F82F
:103B300058303BB1964E3046214604F0DFFD30460A
:103B400004F002FE9348214600F042FA4FF4FA6076
:103B500003F0F4F900268F4C05270CE0204600F016
:103B60005DF9C0B20A2806D00D2804D0A855384601
:103B700003F0E4F90136204600F024F90028EDD1E5
:103B800095F85830002B00F0F280012E16DD284603
:103B900008F056FF02467E4C23685B6820462946A3
:103BA0009847204604F0D0FD23685B6820467A4998
:103BB00011229847204604F0C7FDD8E0744C2368D2
:103BC0005B682046754921229847204604F0BCFDD9
:103BD000CDE0EA5C2B2A01D101341EE0022C0BD08F
:103BE000032C11D0012C18D10A2E03D212A9314472
:103BF00001F8382C013610E00A2F03D212A93944FB
:103C000001F8442C013708E0B8F10A0F03D212A9D9
:103C1000414401F82C2C08F101080133322BD8D192
:103C200001A807F027FF51EC100B07F0CDFE6864E8
:103C300004A807F01FFF51EC100B07F0C5FEA864A5
:103C400007A807F017FF51EC100B07F0BDFEE86462
:103C500095F85830002B00F0938001A808F0F0FE92
:103C600002464B4C23685B68204601A998472046D2
:103C700004F06AFD2046314604F0B2FD204604F00F
:103C800063FD2046394604F0ABFD204604F05CFDA0
:103C90002046414604F0A4FD204604F055FD04A84A
:103CA00008F0CEFE024623685B68204604A99847C8
:103CB000204604F049FD07A808F0C2FE024623682A
:103CC0005B68204607A99847204604F03DFD23681D
:103CD0005B682046324907229847686C07F03EFB34
:103CE00041EC100B2046022104F086FD23685B683E
:103CF00020462C4906229847204604F025FD2368DB
:103D00005B68204628490B22984795ED127ADFED33
:103D1000277A67EE277A17EE900A07F01FFB41EC2F
:103D2000100B2046022104F067FD23685B682046E3
:103D30001F4902229847204604F006FD23685B686D
:103D400020461C490F229847E86C07F007FB41EC1E
:103D5000100B2046022104F04FFD23685B682046CB
:103D6000154904229847204604F0EEFC08E0094873
:103D700000F048F9002398461F461E461C4628E7D7
:103D800012B0BDE8F08100BF003C1CC6283D010018
:103D90000427FF1F5022FF1F2C3D0100403D010062
:103DA000C0210100643D0100C82101000000C8429B
:103DB0006C3D0100D4210100703D0100704700BF3F
:103DC00001207047837B6BB9084B18784030084B53
:103DD0001B78C01A074B184006D5013860F03F0029
:103DE000013070474FF0FF30704700BF6822FF1F5F
:103DF000AC22FF1F3F000080054B1B78054A12785C
:103E00009A421ABF044AD05C4FF0FF30704700BF9F
:103E1000AC22FF1F6822FF1F6C22FF1F0023837349
:103E2000084B1B78084A12789A4207D0074AD05CA0
:103E3000013303F03F03034A137070474FF0FF3024
:103E4000704700BFAC22FF1F6822FF1F6C22FF1FBC
:103E5000034630B1002080F001005A1E1340FAD111
:103E600070470020704700BF10B50446022912D1E8
:103E7000407B002102F080FF607B012102F07CFF8B
:103E8000607B002102F046FF607B402828BFFF20B6
:103E900002F0E0FE10BD032909D1407B002102F0B1
:103EA0006BFF607B012102F067FF72B610BD042931
:103EB00011D1407B002102F02DFF607B002102F038
:103EC0005BFF62B6607B402828BFFF2009490422BF
:103ED00002F092FF10BD407B002102F01BFF607BCF
:103EE000002102F049FF607B402828BFFF2002F03C
:103EF000B1FE10BDD140000010B4002202714FF499
:103F00007A7484600273034C0460827341735DF8B9
:103F1000044B7047803D010010B50446034B03601D
:103F20000021FFF7A1FF204610BD00BF803D01002A
:103F300010B504460321FFF797FF607B012102F0D3
:103F4000E9FE064B013B7FF4FDAF607B002102F0F0
:103F5000E1FE034B013B7FF4FDAF10BDA062070003
:103F6000802005002DE9F047064688460846FFF701
:103F70006FFF48EAC0105FFA80F8707B012102F001
:103F8000C9FE48F2B013013B7FF4FDAF08250124C0
:103F9000A2464FF0000948F2B01714EA080F707BF0
:103FA00014BF4946514602F0B5FE3B46013B7FF443
:103FB000FDAF6400E4B2013DEFD1707B002102F05F
:103FC000A9FE48F2B013013B7FF4FDAFBDE8F087D6
:103FD00070B506460D46FFF7ABFFAB6863B1002432
:103FE0002846214604F0E2FD01783046FFF7BAFF8B
:103FF0000134AB689C42F3D330460421FFF734FF11
:1040000070BD00BF0023034A1370034A137083730B
:10401000704700BF6822FF1FAC22FF1F10B5044687
:10402000064B1B68834206D00221FFF71DFF034B9E
:104030001C60012010BD002010BD00BF6422FF1FC6
:1040400008B5FFF7EBFF08BD2DE9F0410746407BBF
:1040500002F084FE002833D044F2D803013B7FF401
:10406000FDAF07240125002648F2B0184346013B66
:104070007FF4FDAF787B02F071FE08B92E4301E0BA
:1040800026EA05066D00EDB2013CEFD148F2B0130F
:104090001A46013A7FF4FDAF013B7FF4FDAF094BB7
:1040A0001A78531C03F03F03074909788B4203D168
:1040B0000123BB73BDE8F08104498E54014A13709B
:1040C000BDE8F0816822FF1FAC22FF1F6C22FF1F9A
:1040D00008B5034B186808B1FFF7B6FF08BD00BF6D
:1040E0006422FF1F10B582B002AB03F8011D026805
:1040F000546819460122A04702B010BD10B504460D
:10410000C3691BB901230371002010BD0020187181
:10411000E06992B201F008FCE3691B7913B1012355
:104120002371002010BD00BF00B583B0C06960B12D
:104130000DF10701012201F087F901280CBF9DF85C
:1041400007004FF6FF7000B201E04FF0FF3003B000
:104150005DF804FB30B583B00446C06978B10DF159
:104160000701012201F070F901280AD19DF80750DA
:10417000E069C168013901F02BFA284603E000200C
:1041800001E04FF0FF3003B030BD00BF08B5C0699B
:1041900008B101F055FA08BD2DE9F04104460E467C
:1041A0009046002303714FF47A7282600373114BBF
:1041B0000360242007F0AAFCE061B8B13546074649
:1041C00006F1200E3E4628686968AA68EB680FC6AB
:1041D000103537467545F5D12868306004F10D007B
:1041E00041460C2208F0B6FC002363762046BDE869
:1041F000F08100BFA03D0100002202714FF47A71EE
:104200008160027302490160C2614273704700BF5E
:10421000A03D0100014B0360704700BFA03D0100BD
:10422000C3690BB1D86870474FF0FF30704700BFCB
:10423000C3690BB1986970470020704738B50446D0
:10424000C36963B1FFF7F4FF05462046FFF7E8FFB7
:10425000281A47F6FF73984228BF184638BD002039
:1042600038BD00BF10B50446C06930B101F014FA82
:10427000E06907F053FC0023E36110BDC36923B17B
:104280009879003018BF012070470020704700BFA8
:1042900038B504460A46FE290CD1FE23037000F00F
:1042A0002FFA054600F018FAA070D5F1010038BFCA
:1042B000002002E0012100F0E5FDA8B1251D2846FF
:1042C0002146012201F00CFE28B928462146002291
:1042D00001F006FE50B104F12C00294601F08AF8E5
:1042E000003018BF012038BD002038BD002038BD87
:1042F0002DE9F04F99B081469346019300238DF844
:104300001C30394A06928DF81E308DF840300F92DD
:104310008DF8423006A8043101F06CF85C460FAE0F
:1043200006AD4FF02F084FF0000A2CE023782F2B1A
:1043300001D1013427E03F1BFFB20C2F28BF0C270F
:1043400002A821463A4608F005FC18AB3B4403F8A6
:1043500058AC304601F0A0F93046294602AA0123A4
:1043600001F04CFA40B9002389F804301E4AC9F81C
:10437000002089F8063032E03C44284601F08CF9F0
:104380002B4635461E462046414608F073F907463F
:104390000028CBD1CBEB0404019B1C602B7989F85E
:1043A0000430114BC9F800306B7989F80530AB79CE
:1043B00089F80630AB68C9F80830EB68C9F80C30EA
:1043C0002B69C9F810302B7D89F81430AB69C9F816
:1043D0001830EB69C9F81C302B6AC9F82030484600
:1043E00019B0BDE8F08F00BFC03D0100F0B5A7B027
:1043F000044615461F4602A801ABFFF779FF019955
:104400006E18695C19BB9DF80C308DF85430344B34
:1044100014939DF80D308DF855309DF80E308DF8C1
:104420005630049B1693059B1793069B18939DF893
:104430001C308DF86430089B1A93099B1B930A9BD0
:104440001C93204614A9274AFFF7A6FE45E0002149
:104450008DF83010224B0B938DF832109DF80E30F2
:104460001BB92046FFF7C8FE37E00BA802A9324669
:104470003B4601F0C3F918B92046FFF7BDFE2CE01A
:1044800002A801F009F917F0060F03D00BA8119943
:1044900001F09EF89DF830308DF87830104B1D9368
:1044A0009DF831308DF879309DF832308DF87A30C2
:1044B0000D9B1F930E9B20930F9B21939DF84030E3
:1044C0008DF88830119B2393129B2493139B259383
:1044D00020461DA93246FFF75FFE204627B0F0BDFB
:1044E000C03D0100B8250100064B00229A70022150
:1044F000596083F8242083F830200349D96283F877
:1045000032207047B022FF1FC03D010040F24343FC
:10451000074A1360043213604FF48861043211605B
:10452000043213600432136004321360704700BF1A
:1045300000D004400023064A1360043213600432A2
:104540001360043213600432136004321360704746
:1045500000D00440114B196821F008021A60104A7B
:104560000A40104340F460221A60083B1B6813F0B5
:10457000080F07D10B4B0C490A6812F0080F01D144
:10458000013BF9D140F4602242F00802034B1A606B
:1045900004331A6842F480121A6070472C100B40E2
:1045A0000700F0FFFFFF0F0024100B40224B1A689A
:1045B00042F080021A60214A136813F0010FFBD108
:1045C000136813F0020FF7D11D4B18604FF0807382
:1045D00019481C490268013B0A4002D1002BF9D15D
:1045E00002E00BB1012A08D0134A136843F4702388
:1045F00043F001031360012070470F4B1B6813F059
:10460000800F06D00C4B1A6842F001121A6003208A
:104610007047094B1B6813F4803F06D0064B1A689D
:1046200042F001121A6005207047034B1A6842F0ED
:1046300001021A600020704730100B4024100B401C
:104640000C100B4001000E00F8B50022104B1A6050
:104650001048FFF7ABFF63240F4D0D4F0D4E06E0E2
:1046600000233B603046FFF7A1FF013C06D02B68DA
:1046700013F0040F08D00028F2D0F8BD30B90CB107
:104680000020F8BD0520F8BD0028F9D0F8BD00BF16
:1046900008100B400000DB0C24100B4010B5044642
:1046A0000022094B1A600948FFF780FF50B9084BF8
:1046B0001B68054B1C600748FFF778FF18B9044AD0
:1046C000126810BD10BD10BD08100B4000001A3755
:1046D00010100B4000000229084B1B784BB9074B08
:1046E0009B7843B1054B5B78002B14BF032002205D
:1046F0007047002070470120704700BF0423FF1F50
:10470000F8B5A24B1A6842F400321A6008331A68EE
:1047100042F400521A6004331A6842F002021A602E
:1047200004331A6842F002021A60994B1A6822F0A8
:1047300001021A60FFF7FEFE964A974B1A601A466E
:10474000136813F0807FFBD10022944B1A604FF462
:104750008132BC3B1A60282224331A604FF01012B9
:104760001C331A6041F29000FFF7F4FE8C4A136884
:1047700013F0030FFBD1FFF7C9FE4FF6FF72894B11
:104780001A60894A04331A604FF4FA71824A136836
:1047900043F000631360136813F0006FFBD101391D
:1047A000F5D1804B1A6842F080021A600C3B1B68FE
:1047B00013F4803F00F01E8125E17C4B1B684FF411
:1047C000D5727B4B1A607B48FFF7F0FE20B111E0F9
:1047D0000120794B1870F8BD744B1A681B68B3F54B
:1047E000D57F03D00120744B1870F8BD0122724BA5
:1047F0005A7005E0052803D001206F4B1870F8BDF2
:104800000020FFF74BFF18B101206B4B1870F8BD6B
:10481000664B1B6813F4401F1FD0674B5B78002B5F
:10482000664F08BF4FF440170024604E644D0134BA
:104830003846FFF733FF002840F0DA803368002B5A
:10484000C0F2F080AC42F2D104E0584B1B6813F088
:10485000804F02D10022584B5A700022544B1A60EC
:104860005848FFF7A3FE48B9504B1B680022504B35
:104870001A605548FFF79AFE20B111E001204E4B17
:104880001870F8BD494B1A681B681B0C1B044A4A78
:104890005360474A13604D48FFF788FE20B1C6E0D9
:1048A0000120454B1870F8BD494B1A68120E424B57
:1048B000DA70484B1B6813F4400F16D1444B19684B
:1048C000186800F00300043B1A681B68920D42EA66
:1048D00080220132C3F3C21302339A40C1F303238F
:1048E000093B9A40344B9A6009E0334B01229A709D
:1048F000394A1268C2F31522013292029A602E4B95
:104900005A682B4B1A603548FFF750FE50B9274BB9
:104910001B684FF40072264B1A603148FFF746FEC1
:1049200020B10FE00120244B1870F8BD1F4B1B680D
:10493000214B5A681E4B1A602A48FFF737FE0028A1
:1049400079D103E001201C4B1870F8BD174B1B6890
:104950000222174B1A602448FFF728FE00286AD16C
:10496000124B1B68214B1A6822F006021A601A6863
:1049700042F002021A60FFF7DDFD4FF49070FFF77E
:10498000E9FDFFF7C3FD0C4B1878F8BD30800440FB
:1049900000D00040008000012C100B40C0100B40E4
:1049A00024100B4030100B40BB007F1110100B4047
:1049B00008100B4000001A080423FF1F00003040BD
:1049C000A08601000000090200001A030000090986
:1049D00018100B401C100B4014100B4000001B075C
:1049E00000001A1000001A3700001A0628100B40A9
:1049F0000120F8BD124B0220187000225A605A7034
:104A00009A709A60F8BD0E4B00201870586058706C
:104A1000987098600B4B1860FFF7C8FD00283FF4B2
:104A2000CCAED5E6084B9C423FF614AF0DE7012013
:104A3000034B1870F8BD0120014B1870F8BD00BF82
:104A40000423FF1F08100B409F86010070B5044629
:104A5000364B1B78002B65D1344B5B7803B9490288
:104A60004FF6FF72324B1A60283B19604FF48132C7
:104A7000043B1A602F48FFF799FD002854D12E4BB4
:104A80001B682B4A136843F02001116013F4E00FF8
:104A900012D007E02B6843F020062E60403213F45A
:104AA000E00F0FD043F4E00343F02003204A1360EB
:104AB000FFF7CAFD01202CE0224604F5E0701F4CF0
:104AC0001F491B4D236813F4006FFBD00B68136064
:104AD0000B6853600B6893600B68D3600B681361BD
:104AE0000B6853610B6893610B68D3610B681362A9
:104AF0000B6853620B6893620B68D3620B68136395
:104B00000B6853630B6893630B68D3638242C1D114
:104B10000020074A136813F0020FFBD0094A044B28
:104B20001A6070BD032070BD70BD00BF0423FF1F5D
:104B300030100B4010003A1110100B4024100B40A5
:104B400020100B402200000170B506462D4B1B784B
:104B5000002B53D12B4B5B7803B949024FF6FF7200
:104B6000294B1A60283B19604FF48132043B1A60CC
:104B70002648FFF71BFD002842D1254B1B6806F590
:104B80000070214D234C2B6813F0100FFBD02B68C5
:104B900013F4E00F0AD01C4A136843F4E00343F017
:104BA00010031360FFF750FD01201EE006F14001E5
:104BB000334653F8042B22608B42FAD140362B68DF
:104BC00043F010032B602B6813F4E00F0AD00E4A59
:104BD000136843F4E00343F010031360FFF734FD60
:104BE000012002E08642CED10020074A136813F06C
:104BF000020FFBD0084A044B1A6070BD032070BD41
:104C000070BD00BF0423FF1F30100B4000003A1896
:104C100010100B4020100B4012000001084B1A68C6
:104C200042F480621A604FF00042DA62FF225A6357
:104C30001A46D36A002BFCDA014B986BC0B270475E
:104C400000C00240064B1A6842F480621A604FF0BE
:104C50000042DA6258631A46D36A002BFCDA7047C6
:104C600000C0024008B505281CD8DFE800F00307A3
:104C70000B0F13170E4A0F4B1A6016E00C4A0D4B20
:104C80001A6012E00C4A0B4B1A600EE00B4A094BFB
:104C90001A600AE00A4A074B1A6006E0094A054B07
:104CA0001A6002E0084A034B1A6001F06FFB08BD6E
:104CB000000001B81423FF1F011000380320003842
:104CC00001000238043000380650013808B5007879
:104CD000012102F01FF8114B1B78F3B100220F4B9A
:104CE0001A700F4B1B78C3B113F0010F03D00D4B9B
:104CF0001A680D4B1A600A4B1B7813F0020F03D091
:104D0000084B5A68094B1A60054B1B7813F0040FC7
:104D100003D0044B9A68064B1A6008BD1823FF1F86
:104D20006425FF1F5825FF1F00E100E004E100E0BB
:104D300008E100E010B5244B1B78002B3ED1012286
:104D4000214B1A70214B1A68214B1B78002B28D05D
:104D500072B61F4B1B7813F0010F07D01D4B1C6858
:104D60001D49096821401D4C21601960184B1B78B2
:104D700013F0020F07D01A4B1C68174949682140ED
:104D8000164C61601960124B1B7813F0040F07D0AA
:104D9000144B1C68104989682140104CA1601960AF
:104DA00062B6114BDB68934208D00F4B0F49196074
:104DB000DA6042F080421A610D4A1A6000780021E0
:104DC00001F0A8FF10BD00BF1823FF1F1423FF1F11
:104DD0006425FF1F80E100E04C25FF1F5825FF1FC1
:104DE00084E100E088E100E000C0024001401F00D3
:104DF00000001F8070B582B00E460B4B1B680093FD
:104E0000009C094DA4B2FFF709FFFF2807D02B68CB
:104E10000193019B9BB21B1BB342F4DB01E0012019
:104E200000E0002002B070BD6C25FF1FF8B50546FC
:104E30000F4616464FF49671FFF7DCFF47F040002F
:104E4000FFF700FF182426FA04F0C0B2FFF7FAFEBD
:104E5000083C14F1080FF6D127B1082F0CBF8720AA
:104E6000FF2000E09520FFF7EDFE0024FFF7D6FEBF
:104E7000687010F0800F03D00134B4F5807FF5D155
:104E8000F8BD00BF2DE9F04F87B004460191002323
:104E9000837002707D4B1B680393039FBFB2104663
:104EA000012101F037FF2078012101F065FF207812
:104EB000012101F02FFF764B1A6842F480521A60EC
:104EC0000620FFF7CFFE734B1A68734B1B78002B3D
:104ED00028D072B6704B1B7813F0010F07D06F4BC0
:104EE00018686F49096801406E48016019606A4B93
:104EF0001B7813F0020F07D06B4B1868684949689C
:104F00000140684841601960634B1B7813F0040F3F
:104F100007D0664B18686249896801406148816022
:104F2000196062B6624BDB68934200F0A080604B70
:104F300060491960DA6042F080421A615E4A1A6084
:104F400095E02846FFF77EFE013E16F0FF06F8D1F9
:104F5000514B1B78C3B113F0010F03D0514B1A68AA
:104F6000564B1A604C4B1B7813F0020F03D04D4B7D
:104F70005A68534B1A60484B1B7813F0040F03D048
:104F8000484B9A684F4B1A602046FFF7D3FE4FF00C
:104F90000008DFF8F89008E0D9F800300493049B8B
:104FA000DB1B9BB2B3F5FA6F5DD820464146424603
:104FB000FFF73CFF054660700128EDD1204608212F
:104FC0004FF4D572FFF732FF10F0040F04D0012325
:104FD000A3704FF0000A0FE04FF00408FFF71EFE29
:104FE000607008F1FF3313F0FF08F7D1AA283AD117
:104FF0000223A3704FF0804A4FF037094FF00008AA
:10500000DFF888B008E0DBF800300593059BDB1B78
:105010009BB2B3F5FA6F26D8204649464246FFF7C1
:1050200005FF204629215246FFF700FF6070002847
:10503000E9D1A378022B0ED120463A210022FFF7B6
:10504000F5FE80B9FFF7EAFD00F0C000C02811D1DD
:105050000323A3700EE02046FFF738FE0198FFF708
:1050600001FE2E460DE02046FFF730FE09E00A263D
:10507000FF2566E7FFF7D2FDFFF7D0FDFFF7CEFD76
:10508000E9E7304607B0BDE8F08F00BF6C25FF1F91
:105090003C8004401423FF1F6425FF1F80E100E0D3
:1050A0004C25FF1F5825FF1F84E100E088E100E048
:1050B00000C0024001401F0000001F8000E100E02E
:1050C00004E100E008E100E070B582B004460E4B58
:1050D0001B680093009D0C4EADB207E0336801934E
:1050E000019B9BB25B1BB3F5967F09DCFFF796FD36
:1050F0006070FF28F2D0FE2814BF0020012000E0DD
:10510000002002B070BD00BF6C25FF1FF8B504463B
:105110000D4616468378032B18BF4D02FFF70AFE93
:10512000204611212A46FFF781FE002847D120465C
:10513000FFF7CAFF002842D0234B244A1A60244AB2
:105140005A635A635A6306F5FD7E764513D2B01C46
:1051500006F5FE771946CB6A13F0F00FFBD04A63D1
:105160008B6BC3F3072500F8025C00F8013C0230AA
:10517000B842F0D100E0B64606F5007676450DD986
:105180007146114AD36A13F0F00FFBD0936BC3F34F
:10519000072008704B7002318E42F3D80A4B0B4A3D
:1051A0001A600B4A5A631A46D36A13F0F00FFBD009
:1051B000054B9B6B2046FFF789FD0120F8BD20467B
:1051C000FFF784FD0020F8BD00C0024000041F80EE
:1051D000FFFF0090F8B506461E4B186840F480604B
:1051E00018604FF00040D8625963114602F500770D
:1051F0000446DA6A002A08DBFBE7DA6A002A0DDBDC
:10520000FBE7D36A002B15DBFBE708460A781D682D
:1052100045F480651D60DC625A63EEE742781D68E4
:1052200045F480651D60DC625A630231B942E0D109
:10523000084AE6E7FF20FFF705FDFF20FFF702FD24
:10524000FFF7ECFC707000F01F00052814BF002071
:105250000120F8BD00C0024070B5044616460D4658
:1052600029B38378032B18BF4D02FFF763FD204657
:1052700018212A46FFF7DAFDC8B92046FE2132463A
:10528000FFF7A8FF98B120464FF41671FFF7B2FD63
:1052900068B120460D210022FFF7C8FD38B9FFF79D
:1052A000BDFC20B92046FFF711FD012070BD20464E
:1052B000FFF70CFD002070BD014A024B1A607047D9
:1052C000032000381423FF1F10B50446006A012193
:1052D00004F1080200F07AFD034650B1E3693BB9DE
:1052E000A368E361637963F07F036371012300E0E6
:1052F0000123184610BD00BF70B50646FFF7E4FF56
:105300000346E0B1336AB268023A197C02FA01F549
:105310005A6915441C794CB1013D281900F08CFCE8
:10532000034660B1013C14F0FF04F6D1336A1B7CE4
:105330004FF400729A40B3691344B36101231846D5
:1053400070BD00BF10B50446006900F045FC20B1F7
:10535000207D034B03EB401010BD002010BD00BFAB
:105360002823FF1F2DE9F00100232022CA54013316
:105370000B2BFBD10138002507264FF008084FF012
:105380000A0C1B4F21E02E2C01D03A4606E00A2ED3
:1053900024D04546664618E0A34221D012F8013FCA
:1053A000002BF9D1AE421DD3A4F12103DBB25D2B5A
:1053B0001AD86B1CDBB20D44A4F16102D2B2192AD7
:1053C0009CBF203CE4B22C701D4610F8014F002C0D
:1053D000D9D10878203818BF012006E0002004E069
:1053E000002002E0002000E00020BDE8F00170474E
:1053F000C73D010038B504460D4683790BBB91F8D3
:105400002020102A07D1022383710023C3614B8C13
:105410005B0183610CE0202A14D103238371496A64
:10542000C161284604F1180200F05CFC034648B153
:105430002562012363710022A260E260226122756D
:1054400000E00023184638BD2DE9F04F83B0044634
:10545000884601928379002B75D0437913F0010FB0
:1054600074D08269C368D11A0198884201D98BB27D
:105470000193019B002B63D01D46DFF80CA1DFF8E0
:105480000C91DFF80CB1E368C3F30807A279022A94
:1054900004D1226A516A01EB53211BE0206A06798C
:1054A000013E06EA5326F6B25FB956B913B9E3696D
:1054B000A36006E0224652F8081F00F0DDFB00283A
:1054C00047D0226AA368023B117C03FA01F15269BA
:1054D00011443144C7F500739D42C6BF1E46B6B2A3
:1054E0002E46637913F0400F02D1B6F5007F3AD112
:1054F000D9F8003099423DD135E04046FFF7A6FA91
:10550000D0F1010038BF002002E04246FFF7FEFD67
:1055100010B3B0440DE05744B819874209D03B4658
:10552000424613F8011B02F8011B8342F9D1C71B45
:10553000B844E3683344E360AD1BADB2002DA2D1A3
:10554000019B98B20DE04FF6FF700AE04FF6FF7036
:1055500007E04FF6FF7004E04FF6FF7001E04FF6F2
:10556000FF7000B20CE00846002100F035FB002877
:10557000D1D1F4E7DBF800000378FE2BC5D1BCE7FE
:1055800003B0BDE8F08F00BF2823FF1F8808FF1F6E
:105590002423FF1F30B583B004468379012B0FD934
:1055A000C5680DF107010122FFF74EFF012809D15F
:1055B000E3681F33E36005F4F070044B184402E025
:1055C000002000E0002003B030BD00BF2823FF1FF3
:1055D000F8B504460F4683797BB382698A422BD3A0
:1055E000022B02D1E160012327E021B9002383606F
:1055F000C360012321E0C368026A157C09355A1E85
:10560000EA40013921FA05F5AA4200D813B9E36945
:10561000A3600AE0AD1A08E0206AA168324600F0F3
:105620002BFB013D034610B907E004F10806002DED
:10563000F2D1E760012300E000231846F8BD00BF67
:1056400038B50446807918B394F90530002B1BDA7D
:1056500020460121FFF776FE0546C0B1A379012B54
:105660009CBFA369C361A38B4383E38B8382094BF4
:105670001B682BB1183005F1160198472B8B6B82F4
:10568000637903F07F03637100F066FA38BD002090
:1056900038BD00BF1C23FF1F10B50446FFF7D0FF25
:1056A000034610B10023A3710123184610BD00BFAB
:1056B000F0B583B004460D468379012B4ED1427973
:1056C00002F0020202F0FF01002A49D08269AA42D8
:1056D00048D3002A47D0C6682946FFF779FF03461A
:1056E000002840D04DB9206AE16900F0D3FB0346A1
:1056F000002838D00023E3611DE0206AA16801AAD8
:1057000000F0BAFAA8B1206A019990F820704FF61B
:10571000F872164B102F08BF134699420BD200F0B7
:10572000B9FB30B1206AA1686FF0704200F006FB4F
:1057300008B9002317E0A561637963F07F03637103
:105740002046FFF77DFF034668B12046B54234BFCF
:1057500029463146FFF73CFF034604E0002302E000
:105760000B4600E00023184603B0F0BDF8FFFF0F22
:1057700038B5044615461F4B03EB4113DA7A12F095
:10578000110F02D015F0420F2CD121751A4A126860
:105790002261998A0904E1615A8B1143E161D87A47
:1057A00010F0180004D1DB69A3610123A3710AE0A2
:1057B000102819D1206A04F1180200F093FA034668
:1057C000A8B10423A37105F00F0363710023A36044
:1057D000E36015F0400F09D020461946FFF768FF37
:1057E000034604E0002302E0002300E00123184602
:1057F00038BD00BF2823FF1F8808FF1F2DE9F04F89
:1058000085B005460C469A468679002E7FD1104613
:1058100001A9FFF7A7FD00287BD0236A2B62002790
:10582000A760E760DFF8FC904FF0010825E0C1F3C6
:10583000431B2046FFF7AEFE014600286AD00378DE
:105840000BB1E52B09D12FB985F814B0D9F8003088
:105850002B6147460B7883B913E001A80B2206F0B1
:1058600001FC50B90AF03003302B53D0284659467A
:105870005246FFF77DFF06464CE0E168A369994276
:10588000D5D30AF01203122B44D137B12846012197
:10589000FFF758FD044660B93CE0A379022B39D0EC
:1058A0002046FFF729FD0646002833D000232B753C
:1058B0001A4C20460021202206F068FC01AB03CBE5
:1058C000206061601A889B782281A372144B1B6848
:1058D0002BB104F1100004F10E01984707E02123D9
:1058E0002374282363740023A3730823E373238A98
:1058F00063822383E389E38200F02EF9064648B1F0
:105900002846297D5246FFF733FF064602E000266F
:1059100000E00646304605B0BDE8F08F2823FF1FA3
:105920001C23FF1F8808FF1F2DE9F04F85B0044698
:10593000884601928379012B40F0CB80437913F0A4
:10594000020F00F0C68013F0040F08D08169C3680D
:105950008B4204D0FFF73CFE002800F0BA80019A89
:10596000002A00F099801646DFF8CCA1DFF8CCB110
:10597000206AE76890F8049009F1FF3909EA57298D
:10598000C7F3080719F0FF092AD1002F40F0A580BE
:10599000A16851B9E36933B92046FFF795FC0028A7
:1059A00040F0AC8095E0A360A8E003AA00F064F9A1
:1059B000002800F0B580039B226A92F820004FF681
:1059C000F871594A102808BF0A46934206D3204668
:1059D000FFF77AFC002840F091807AE0A3608DE028
:1059E000C7F50075ADB2AE4238BF3546A368023B7D
:1059F000027C9340426913449944B5F5007F1ED15F
:105A0000DBF800304B4504BF4FF0FF33CBF80030DC
:105A1000464B18680378FE2B08D140464946FFF7ED
:105A200093F8D0F1010038BF002003E04946424618
:105A3000FFF712FC00284CD008F5007824E07FB96D
:105A4000E268A3699A420BD300F086F8002840D0A0
:105A5000CBF80090364A137843F00103137005E049
:105A60004846012100F0B8F8002832D05744781990
:105A7000874209D03B46424612F8011B03F8011B3E
:105A80008342F9D1C71BB844761BB6B2E3681D4404
:105A9000E560002E7FF46CAFE368A269934205D9FC
:105AA000A361637963F07F03637108E0214B1B6896
:105AB0002BB1019B1BB1637963F07F036371637941
:105AC00013F0080F03D02046FFF7BAFD08B1019884
:105AD00026E001232371002022E0C7F50075ADB256
